{
	"DonateCrypto.sol": {
		"DonateCrypto": {
			"abi": [
				{
					"inputs": [
						{
							"internalType": "string",
							"name": "title",
							"type": "string"
						},
						{
							"internalType": "string",
							"name": "description",
							"type": "string"
						},
						{
							"internalType": "string",
							"name": "videoUrl",
							"type": "string"
						},
						{
							"internalType": "string",
							"name": "imageUrl",
							"type": "string"
						}
					],
					"name": "addCampaign",
					"outputs": [],
					"stateMutability": "nonpayable",
					"type": "function"
				},
				{
					"inputs": [
						{
							"internalType": "uint256",
							"name": "",
							"type": "uint256"
						}
					],
					"name": "campaigns",
					"outputs": [
						{
							"internalType": "address",
							"name": "author",
							"type": "address"
						},
						{
							"internalType": "string",
							"name": "title",
							"type": "string"
						},
						{
							"internalType": "string",
							"name": "description",
							"type": "string"
						},
						{
							"internalType": "string",
							"name": "videoUrl",
							"type": "string"
						},
						{
							"internalType": "string",
							"name": "imageUrl",
							"type": "string"
						},
						{
							"internalType": "uint256",
							"name": "balance",
							"type": "uint256"
						},
						{
							"internalType": "bool",
							"name": "active",
							"type": "bool"
						}
					],
					"stateMutability": "view",
					"type": "function"
				},
				{
					"inputs": [
						{
							"internalType": "uint256",
							"name": "id",
							"type": "uint256"
						}
					],
					"name": "donate",
					"outputs": [],
					"stateMutability": "payable",
					"type": "function"
				},
				{
					"inputs": [],
					"name": "fee",
					"outputs": [
						{
							"internalType": "uint256",
							"name": "",
							"type": "uint256"
						}
					],
					"stateMutability": "view",
					"type": "function"
				},
				{
					"inputs": [],
					"name": "nextId",
					"outputs": [
						{
							"internalType": "uint256",
							"name": "",
							"type": "uint256"
						}
					],
					"stateMutability": "view",
					"type": "function"
				},
				{
					"inputs": [
						{
							"internalType": "uint256",
							"name": "id",
							"type": "uint256"
						}
					],
					"name": "withdraw",
					"outputs": [],
					"stateMutability": "nonpayable",
					"type": "function"
				}
			],
			"devdoc": {
				"kind": "dev",
				"methods": {},
				"version": 1
			},
			"evm": {
				"assembly": "    /* \"DonateCrypto.sol\":234:1659  contract DonateCrypto {... */\n  mstore(0x40, 0x80)\n    /* \"DonateCrypto.sol\":284:287  100 */\n  0x64\n    /* \"DonateCrypto.sol\":263:287  uint256 public fee = 100 */\n  0x00\n  sstore\n    /* \"DonateCrypto.sol\":324:325  0 */\n  0x00\n    /* \"DonateCrypto.sol\":300:325  uint256 public nextId = 0 */\n  0x01\n  sstore\n    /* \"DonateCrypto.sol\":234:1659  contract DonateCrypto {... */\n  callvalue\n  dup1\n  iszero\n  tag_1\n  jumpi\n  0x00\n  dup1\n  revert\ntag_1:\n  pop\n  dataSize(sub_0)\n  dup1\n  dataOffset(sub_0)\n  0x00\n  codecopy\n  0x00\n  return\nstop\n\nsub_0: assembly {\n        /* \"DonateCrypto.sol\":234:1659  contract DonateCrypto {... */\n      mstore(0x40, 0x80)\n      jumpi(tag_1, lt(calldatasize, 0x04))\n      shr(0xe0, calldataload(0x00))\n      dup1\n      0x141961bc\n      eq\n      tag_2\n      jumpi\n      dup1\n      0x2e1a7d4d\n      eq\n      tag_3\n      jumpi\n      dup1\n      0x61b8ce8c\n      eq\n      tag_4\n      jumpi\n      dup1\n      0xddca3f43\n      eq\n      tag_5\n      jumpi\n      dup1\n      0xec671486\n      eq\n      tag_6\n      jumpi\n      dup1\n      0xf14faf6f\n      eq\n      tag_7\n      jumpi\n    tag_1:\n      0x00\n      dup1\n      revert\n        /* \"DonateCrypto.sol\":340:385  mapping(uint256 => Campaign) public campaigns */\n    tag_2:\n      callvalue\n      dup1\n      iszero\n      tag_8\n      jumpi\n      0x00\n      dup1\n      revert\n    tag_8:\n      pop\n      tag_9\n      0x04\n      dup1\n      calldatasize\n      sub\n      dup2\n      add\n      swap1\n      tag_10\n      swap2\n      swap1\n      tag_11\n      jump\t// in\n    tag_10:\n      tag_12\n      jump\t// in\n    tag_9:\n      mload(0x40)\n      tag_13\n      swap8\n      swap7\n      swap6\n      swap5\n      swap4\n      swap3\n      swap2\n      swap1\n      tag_14\n      jump\t// in\n    tag_13:\n      mload(0x40)\n      dup1\n      swap2\n      sub\n      swap1\n      return\n        /* \"DonateCrypto.sol\":1161:1656  function withdraw(uint256 id)public{... */\n    tag_3:\n      callvalue\n      dup1\n      iszero\n      tag_15\n      jumpi\n      0x00\n      dup1\n      revert\n    tag_15:\n      pop\n      tag_16\n      0x04\n      dup1\n      calldatasize\n      sub\n      dup2\n      add\n      swap1\n      tag_17\n      swap2\n      swap1\n      tag_11\n      jump\t// in\n    tag_17:\n      tag_18\n      jump\t// in\n    tag_16:\n      stop\n        /* \"DonateCrypto.sol\":300:325  uint256 public nextId = 0 */\n    tag_4:\n      callvalue\n      dup1\n      iszero\n      tag_19\n      jumpi\n      0x00\n      dup1\n      revert\n    tag_19:\n      pop\n      tag_20\n      tag_21\n      jump\t// in\n    tag_20:\n      mload(0x40)\n      tag_22\n      swap2\n      swap1\n      tag_23\n      jump\t// in\n    tag_22:\n      mload(0x40)\n      dup1\n      swap2\n      sub\n      swap1\n      return\n        /* \"DonateCrypto.sol\":263:287  uint256 public fee = 100 */\n    tag_5:\n      callvalue\n      dup1\n      iszero\n      tag_24\n      jumpi\n      0x00\n      dup1\n      revert\n    tag_24:\n      pop\n      tag_25\n      tag_26\n      jump\t// in\n    tag_25:\n      mload(0x40)\n      tag_27\n      swap2\n      swap1\n      tag_23\n      jump\t// in\n    tag_27:\n      mload(0x40)\n      dup1\n      swap2\n      sub\n      swap1\n      return\n        /* \"DonateCrypto.sol\":408:896  function addCampaign( string calldata title, string calldata description, string calldata videoUrl, string calldata imageUrl) public {... */\n    tag_6:\n      callvalue\n      dup1\n      iszero\n      tag_28\n      jumpi\n      0x00\n      dup1\n      revert\n    tag_28:\n      pop\n      tag_29\n      0x04\n      dup1\n      calldatasize\n      sub\n      dup2\n      add\n      swap1\n      tag_30\n      swap2\n      swap1\n      tag_31\n      jump\t// in\n    tag_30:\n      tag_32\n      jump\t// in\n    tag_29:\n      stop\n        /* \"DonateCrypto.sol\":904:1153  function donate(uint256 id)public payable {... */\n    tag_7:\n      tag_33\n      0x04\n      dup1\n      calldatasize\n      sub\n      dup2\n      add\n      swap1\n      tag_34\n      swap2\n      swap1\n      tag_11\n      jump\t// in\n    tag_34:\n      tag_35\n      jump\t// in\n    tag_33:\n      stop\n        /* \"DonateCrypto.sol\":340:385  mapping(uint256 => Campaign) public campaigns */\n    tag_12:\n      mstore(0x20, 0x02)\n      dup1\n      0x00\n      mstore\n      keccak256(0x00, 0x40)\n      0x00\n      swap2\n      pop\n      swap1\n      pop\n      dup1\n      0x00\n      add\n      0x00\n      swap1\n      sload\n      swap1\n      0x0100\n      exp\n      swap1\n      div\n      0xffffffffffffffffffffffffffffffffffffffff\n      and\n      swap1\n      dup1\n      0x01\n      add\n      dup1\n      sload\n      tag_36\n      swap1\n      tag_37\n      jump\t// in\n    tag_36:\n      dup1\n      0x1f\n      add\n      0x20\n      dup1\n      swap2\n      div\n      mul\n      0x20\n      add\n      mload(0x40)\n      swap1\n      dup2\n      add\n      0x40\n      mstore\n      dup1\n      swap3\n      swap2\n      swap1\n      dup2\n      dup2\n      mstore\n      0x20\n      add\n      dup3\n      dup1\n      sload\n      tag_38\n      swap1\n      tag_37\n      jump\t// in\n    tag_38:\n      dup1\n      iszero\n      tag_39\n      jumpi\n      dup1\n      0x1f\n      lt\n      tag_40\n      jumpi\n      0x0100\n      dup1\n      dup4\n      sload\n      div\n      mul\n      dup4\n      mstore\n      swap2\n      0x20\n      add\n      swap2\n      jump(tag_39)\n    tag_40:\n      dup3\n      add\n      swap2\n      swap1\n      0x00\n      mstore\n      keccak256(0x00, 0x20)\n      swap1\n    tag_41:\n      dup2\n      sload\n      dup2\n      mstore\n      swap1\n      0x01\n      add\n      swap1\n      0x20\n      add\n      dup1\n      dup4\n      gt\n      tag_41\n      jumpi\n      dup3\n      swap1\n      sub\n      0x1f\n      and\n      dup3\n      add\n      swap2\n    tag_39:\n      pop\n      pop\n      pop\n      pop\n      pop\n      swap1\n      dup1\n      0x02\n      add\n      dup1\n      sload\n      tag_42\n      swap1\n      tag_37\n      jump\t// in\n    tag_42:\n      dup1\n      0x1f\n      add\n      0x20\n      dup1\n      swap2\n      div\n      mul\n      0x20\n      add\n      mload(0x40)\n      swap1\n      dup2\n      add\n      0x40\n      mstore\n      dup1\n      swap3\n      swap2\n      swap1\n      dup2\n      dup2\n      mstore\n      0x20\n      add\n      dup3\n      dup1\n      sload\n      tag_43\n      swap1\n      tag_37\n      jump\t// in\n    tag_43:\n      dup1\n      iszero\n      tag_44\n      jumpi\n      dup1\n      0x1f\n      lt\n      tag_45\n      jumpi\n      0x0100\n      dup1\n      dup4\n      sload\n      div\n      mul\n      dup4\n      mstore\n      swap2\n      0x20\n      add\n      swap2\n      jump(tag_44)\n    tag_45:\n      dup3\n      add\n      swap2\n      swap1\n      0x00\n      mstore\n      keccak256(0x00, 0x20)\n      swap1\n    tag_46:\n      dup2\n      sload\n      dup2\n      mstore\n      swap1\n      0x01\n      add\n      swap1\n      0x20\n      add\n      dup1\n      dup4\n      gt\n      tag_46\n      jumpi\n      dup3\n      swap1\n      sub\n      0x1f\n      and\n      dup3\n      add\n      swap2\n    tag_44:\n      pop\n      pop\n      pop\n      pop\n      pop\n      swap1\n      dup1\n      0x03\n      add\n      dup1\n      sload\n      tag_47\n      swap1\n      tag_37\n      jump\t// in\n    tag_47:\n      dup1\n      0x1f\n      add\n      0x20\n      dup1\n      swap2\n      div\n      mul\n      0x20\n      add\n      mload(0x40)\n      swap1\n      dup2\n      add\n      0x40\n      mstore\n      dup1\n      swap3\n      swap2\n      swap1\n      dup2\n      dup2\n      mstore\n      0x20\n      add\n      dup3\n      dup1\n      sload\n      tag_48\n      swap1\n      tag_37\n      jump\t// in\n    tag_48:\n      dup1\n      iszero\n      tag_49\n      jumpi\n      dup1\n      0x1f\n      lt\n      tag_50\n      jumpi\n      0x0100\n      dup1\n      dup4\n      sload\n      div\n      mul\n      dup4\n      mstore\n      swap2\n      0x20\n      add\n      swap2\n      jump(tag_49)\n    tag_50:\n      dup3\n      add\n      swap2\n      swap1\n      0x00\n      mstore\n      keccak256(0x00, 0x20)\n      swap1\n    tag_51:\n      dup2\n      sload\n      dup2\n      mstore\n      swap1\n      0x01\n      add\n      swap1\n      0x20\n      add\n      dup1\n      dup4\n      gt\n      tag_51\n      jumpi\n      dup3\n      swap1\n      sub\n      0x1f\n      and\n      dup3\n      add\n      swap2\n    tag_49:\n      pop\n      pop\n      pop\n      pop\n      pop\n      swap1\n      dup1\n      0x04\n      add\n      dup1\n      sload\n      tag_52\n      swap1\n      tag_37\n      jump\t// in\n    tag_52:\n      dup1\n      0x1f\n      add\n      0x20\n      dup1\n      swap2\n      div\n      mul\n      0x20\n      add\n      mload(0x40)\n      swap1\n      dup2\n      add\n      0x40\n      mstore\n      dup1\n      swap3\n      swap2\n      swap1\n      dup2\n      dup2\n      mstore\n      0x20\n      add\n      dup3\n      dup1\n      sload\n      tag_53\n      swap1\n      tag_37\n      jump\t// in\n    tag_53:\n      dup1\n      iszero\n      tag_54\n      jumpi\n      dup1\n      0x1f\n      lt\n      tag_55\n      jumpi\n      0x0100\n      dup1\n      dup4\n      sload\n      div\n      mul\n      dup4\n      mstore\n      swap2\n      0x20\n      add\n      swap2\n      jump(tag_54)\n    tag_55:\n      dup3\n      add\n      swap2\n      swap1\n      0x00\n      mstore\n      keccak256(0x00, 0x20)\n      swap1\n    tag_56:\n      dup2\n      sload\n      dup2\n      mstore\n      swap1\n      0x01\n      add\n      swap1\n      0x20\n      add\n      dup1\n      dup4\n      gt\n      tag_56\n      jumpi\n      dup3\n      swap1\n      sub\n      0x1f\n      and\n      dup3\n      add\n      swap2\n    tag_54:\n      pop\n      pop\n      pop\n      pop\n      pop\n      swap1\n      dup1\n      0x05\n      add\n      sload\n      swap1\n      dup1\n      0x06\n      add\n      0x00\n      swap1\n      sload\n      swap1\n      0x0100\n      exp\n      swap1\n      div\n      0xff\n      and\n      swap1\n      pop\n      dup8\n      jump\t// out\n        /* \"DonateCrypto.sol\":1161:1656  function withdraw(uint256 id)public{... */\n    tag_18:\n        /* \"DonateCrypto.sol\":1207:1231  Campaign memory campaign */\n      0x00\n        /* \"DonateCrypto.sol\":1234:1243  campaigns */\n      0x02\n        /* \"DonateCrypto.sol\":1234:1247  campaigns[id] */\n      0x00\n        /* \"DonateCrypto.sol\":1244:1246  id */\n      dup4\n        /* \"DonateCrypto.sol\":1234:1247  campaigns[id] */\n      dup2\n      mstore\n      0x20\n      add\n      swap1\n      dup2\n      mstore\n      0x20\n      add\n      0x00\n      keccak256\n        /* \"DonateCrypto.sol\":1207:1247  Campaign memory campaign = campaigns[id] */\n      mload(0x40)\n      dup1\n      0xe0\n      add\n      0x40\n      mstore\n      swap1\n      dup2\n      0x00\n      dup3\n      add\n      0x00\n      swap1\n      sload\n      swap1\n      0x0100\n      exp\n      swap1\n      div\n      0xffffffffffffffffffffffffffffffffffffffff\n      and\n      0xffffffffffffffffffffffffffffffffffffffff\n      and\n      0xffffffffffffffffffffffffffffffffffffffff\n      and\n      dup2\n      mstore\n      0x20\n      add\n      0x01\n      dup3\n      add\n      dup1\n      sload\n      tag_58\n      swap1\n      tag_37\n      jump\t// in\n    tag_58:\n      dup1\n      0x1f\n      add\n      0x20\n      dup1\n      swap2\n      div\n      mul\n      0x20\n      add\n      mload(0x40)\n      swap1\n      dup2\n      add\n      0x40\n      mstore\n      dup1\n      swap3\n      swap2\n      swap1\n      dup2\n      dup2\n      mstore\n      0x20\n      add\n      dup3\n      dup1\n      sload\n      tag_59\n      swap1\n      tag_37\n      jump\t// in\n    tag_59:\n      dup1\n      iszero\n      tag_60\n      jumpi\n      dup1\n      0x1f\n      lt\n      tag_61\n      jumpi\n      0x0100\n      dup1\n      dup4\n      sload\n      div\n      mul\n      dup4\n      mstore\n      swap2\n      0x20\n      add\n      swap2\n      jump(tag_60)\n    tag_61:\n      dup3\n      add\n      swap2\n      swap1\n      0x00\n      mstore\n      keccak256(0x00, 0x20)\n      swap1\n    tag_62:\n      dup2\n      sload\n      dup2\n      mstore\n      swap1\n      0x01\n      add\n      swap1\n      0x20\n      add\n      dup1\n      dup4\n      gt\n      tag_62\n      jumpi\n      dup3\n      swap1\n      sub\n      0x1f\n      and\n      dup3\n      add\n      swap2\n    tag_60:\n      pop\n      pop\n      pop\n      pop\n      pop\n      dup2\n      mstore\n      0x20\n      add\n      0x02\n      dup3\n      add\n      dup1\n      sload\n      tag_63\n      swap1\n      tag_37\n      jump\t// in\n    tag_63:\n      dup1\n      0x1f\n      add\n      0x20\n      dup1\n      swap2\n      div\n      mul\n      0x20\n      add\n      mload(0x40)\n      swap1\n      dup2\n      add\n      0x40\n      mstore\n      dup1\n      swap3\n      swap2\n      swap1\n      dup2\n      dup2\n      mstore\n      0x20\n      add\n      dup3\n      dup1\n      sload\n      tag_64\n      swap1\n      tag_37\n      jump\t// in\n    tag_64:\n      dup1\n      iszero\n      tag_65\n      jumpi\n      dup1\n      0x1f\n      lt\n      tag_66\n      jumpi\n      0x0100\n      dup1\n      dup4\n      sload\n      div\n      mul\n      dup4\n      mstore\n      swap2\n      0x20\n      add\n      swap2\n      jump(tag_65)\n    tag_66:\n      dup3\n      add\n      swap2\n      swap1\n      0x00\n      mstore\n      keccak256(0x00, 0x20)\n      swap1\n    tag_67:\n      dup2\n      sload\n      dup2\n      mstore\n      swap1\n      0x01\n      add\n      swap1\n      0x20\n      add\n      dup1\n      dup4\n      gt\n      tag_67\n      jumpi\n      dup3\n      swap1\n      sub\n      0x1f\n      and\n      dup3\n      add\n      swap2\n    tag_65:\n      pop\n      pop\n      pop\n      pop\n      pop\n      dup2\n      mstore\n      0x20\n      add\n      0x03\n      dup3\n      add\n      dup1\n      sload\n      tag_68\n      swap1\n      tag_37\n      jump\t// in\n    tag_68:\n      dup1\n      0x1f\n      add\n      0x20\n      dup1\n      swap2\n      div\n      mul\n      0x20\n      add\n      mload(0x40)\n      swap1\n      dup2\n      add\n      0x40\n      mstore\n      dup1\n      swap3\n      swap2\n      swap1\n      dup2\n      dup2\n      mstore\n      0x20\n      add\n      dup3\n      dup1\n      sload\n      tag_69\n      swap1\n      tag_37\n      jump\t// in\n    tag_69:\n      dup1\n      iszero\n      tag_70\n      jumpi\n      dup1\n      0x1f\n      lt\n      tag_71\n      jumpi\n      0x0100\n      dup1\n      dup4\n      sload\n      div\n      mul\n      dup4\n      mstore\n      swap2\n      0x20\n      add\n      swap2\n      jump(tag_70)\n    tag_71:\n      dup3\n      add\n      swap2\n      swap1\n      0x00\n      mstore\n      keccak256(0x00, 0x20)\n      swap1\n    tag_72:\n      dup2\n      sload\n      dup2\n      mstore\n      swap1\n      0x01\n      add\n      swap1\n      0x20\n      add\n      dup1\n      dup4\n      gt\n      tag_72\n      jumpi\n      dup3\n      swap1\n      sub\n      0x1f\n      and\n      dup3\n      add\n      swap2\n    tag_70:\n      pop\n      pop\n      pop\n      pop\n      pop\n      dup2\n      mstore\n      0x20\n      add\n      0x04\n      dup3\n      add\n      dup1\n      sload\n      tag_73\n      swap1\n      tag_37\n      jump\t// in\n    tag_73:\n      dup1\n      0x1f\n      add\n      0x20\n      dup1\n      swap2\n      div\n      mul\n      0x20\n      add\n      mload(0x40)\n      swap1\n      dup2\n      add\n      0x40\n      mstore\n      dup1\n      swap3\n      swap2\n      swap1\n      dup2\n      dup2\n      mstore\n      0x20\n      add\n      dup3\n      dup1\n      sload\n      tag_74\n      swap1\n      tag_37\n      jump\t// in\n    tag_74:\n      dup1\n      iszero\n      tag_75\n      jumpi\n      dup1\n      0x1f\n      lt\n      tag_76\n      jumpi\n      0x0100\n      dup1\n      dup4\n      sload\n      div\n      mul\n      dup4\n      mstore\n      swap2\n      0x20\n      add\n      swap2\n      jump(tag_75)\n    tag_76:\n      dup3\n      add\n      swap2\n      swap1\n      0x00\n      mstore\n      keccak256(0x00, 0x20)\n      swap1\n    tag_77:\n      dup2\n      sload\n      dup2\n      mstore\n      swap1\n      0x01\n      add\n      swap1\n      0x20\n      add\n      dup1\n      dup4\n      gt\n      tag_77\n      jumpi\n      dup3\n      swap1\n      sub\n      0x1f\n      and\n      dup3\n      add\n      swap2\n    tag_75:\n      pop\n      pop\n      pop\n      pop\n      pop\n      dup2\n      mstore\n      0x20\n      add\n      0x05\n      dup3\n      add\n      sload\n      dup2\n      mstore\n      0x20\n      add\n      0x06\n      dup3\n      add\n      0x00\n      swap1\n      sload\n      swap1\n      0x0100\n      exp\n      swap1\n      div\n      0xff\n      and\n      iszero\n      iszero\n      iszero\n      iszero\n      dup2\n      mstore\n      pop\n      pop\n      swap1\n      pop\n        /* \"DonateCrypto.sol\":1287:1297  msg.sender */\n      caller\n        /* \"DonateCrypto.sol\":1268:1297  campaign.author == msg.sender */\n      0xffffffffffffffffffffffffffffffffffffffff\n      and\n        /* \"DonateCrypto.sol\":1268:1276  campaign */\n      dup2\n        /* \"DonateCrypto.sol\":1268:1283  campaign.author */\n      0x00\n      add\n      mload\n        /* \"DonateCrypto.sol\":1268:1297  campaign.author == msg.sender */\n      0xffffffffffffffffffffffffffffffffffffffff\n      and\n      eq\n        /* \"DonateCrypto.sol\":1260:1328  require(campaign.author == msg.sender, \"You do not have permission\") */\n      tag_78\n      jumpi\n      mload(0x40)\n      0x08c379a000000000000000000000000000000000000000000000000000000000\n      dup2\n      mstore\n      0x04\n      add\n      tag_79\n      swap1\n      tag_80\n      jump\t// in\n    tag_79:\n      mload(0x40)\n      dup1\n      swap2\n      sub\n      swap1\n      revert\n    tag_78:\n        /* \"DonateCrypto.sol\":1366:1370  true */\n      0x01\n        /* \"DonateCrypto.sol\":1347:1370  campaign.active == true */\n      iszero\n      iszero\n        /* \"DonateCrypto.sol\":1347:1355  campaign */\n      dup2\n        /* \"DonateCrypto.sol\":1347:1362  campaign.active */\n      0xc0\n      add\n      mload\n        /* \"DonateCrypto.sol\":1347:1370  campaign.active == true */\n      iszero\n      iszero\n      eq\n        /* \"DonateCrypto.sol\":1339:1398  require(campaign.active == true, \"This campaign is closed\") */\n      tag_81\n      jumpi\n      mload(0x40)\n      0x08c379a000000000000000000000000000000000000000000000000000000000\n      dup2\n      mstore\n      0x04\n      add\n      tag_82\n      swap1\n      tag_83\n      jump\t// in\n    tag_82:\n      mload(0x40)\n      dup1\n      swap2\n      sub\n      swap1\n      revert\n    tag_81:\n        /* \"DonateCrypto.sol\":1436:1439  fee */\n      sload(0x00)\n        /* \"DonateCrypto.sol\":1417:1425  campaign */\n      dup2\n        /* \"DonateCrypto.sol\":1417:1433  campaign.balance */\n      0xa0\n      add\n      mload\n        /* \"DonateCrypto.sol\":1417:1439  campaign.balance > fee */\n      gt\n        /* \"DonateCrypto.sol\":1409:1487  require(campaign.balance > fee, \"This campaign does not have enought balance\") */\n      tag_84\n      jumpi\n      mload(0x40)\n      0x08c379a000000000000000000000000000000000000000000000000000000000\n      dup2\n      mstore\n      0x04\n      add\n      tag_85\n      swap1\n      tag_86\n      jump\t// in\n    tag_85:\n      mload(0x40)\n      dup1\n      swap2\n      sub\n      swap1\n      revert\n    tag_84:\n        /* \"DonateCrypto.sol\":1500:1525  address payable recepient */\n      0x00\n        /* \"DonateCrypto.sol\":1537:1545  campaign */\n      dup2\n        /* \"DonateCrypto.sol\":1537:1552  campaign.author */\n      0x00\n      add\n      mload\n        /* \"DonateCrypto.sol\":1500:1553  address payable recepient = payable (campaign.author) */\n      swap1\n      pop\n        /* \"DonateCrypto.sol\":1564:1573  recepient */\n      dup1\n        /* \"DonateCrypto.sol\":1564:1578  recepient.call */\n      0xffffffffffffffffffffffffffffffffffffffff\n      and\n        /* \"DonateCrypto.sol\":1605:1608  fee */\n      sload(0x00)\n        /* \"DonateCrypto.sol\":1586:1594  campaign */\n      dup4\n        /* \"DonateCrypto.sol\":1586:1602  campaign.balance */\n      0xa0\n      add\n      mload\n        /* \"DonateCrypto.sol\":1586:1608  campaign.balance - fee */\n      tag_87\n      swap2\n      swap1\n      tag_88\n      jump\t// in\n    tag_87:\n        /* \"DonateCrypto.sol\":1564:1613  recepient.call{value: campaign.balance - fee}(\"\") */\n      mload(0x40)\n      tag_89\n      swap1\n      tag_90\n      jump\t// in\n    tag_89:\n      0x00\n      mload(0x40)\n      dup1\n      dup4\n      sub\n      dup2\n      dup6\n      dup8\n      gas\n      call\n      swap3\n      pop\n      pop\n      pop\n      returndatasize\n      dup1\n      0x00\n      dup2\n      eq\n      tag_93\n      jumpi\n      mload(0x40)\n      swap2\n      pop\n      and(add(returndatasize, 0x3f), not(0x1f))\n      dup3\n      add\n      0x40\n      mstore\n      returndatasize\n      dup3\n      mstore\n      returndatasize\n      0x00\n      0x20\n      dup5\n      add\n      returndatacopy\n      jump(tag_92)\n    tag_93:\n      0x60\n      swap2\n      pop\n    tag_92:\n      pop\n      pop\n      pop\n        /* \"DonateCrypto.sol\":1643:1648  false */\n      0x00\n        /* \"DonateCrypto.sol\":1624:1648  campaign.active == false */\n      iszero\n      iszero\n        /* \"DonateCrypto.sol\":1624:1632  campaign */\n      dup3\n        /* \"DonateCrypto.sol\":1624:1639  campaign.active */\n      0xc0\n      add\n      mload\n        /* \"DonateCrypto.sol\":1624:1648  campaign.active == false */\n      pop\n      pop\n        /* \"DonateCrypto.sol\":1196:1656  {... */\n      pop\n      pop\n        /* \"DonateCrypto.sol\":1161:1656  function withdraw(uint256 id)public{... */\n      pop\n      jump\t// out\n        /* \"DonateCrypto.sol\":300:325  uint256 public nextId = 0 */\n    tag_21:\n      sload(0x01)\n      dup2\n      jump\t// out\n        /* \"DonateCrypto.sol\":263:287  uint256 public fee = 100 */\n    tag_26:\n      sload(0x00)\n      dup2\n      jump\t// out\n        /* \"DonateCrypto.sol\":408:896  function addCampaign( string calldata title, string calldata description, string calldata videoUrl, string calldata imageUrl) public {... */\n    tag_32:\n        /* \"DonateCrypto.sol\":552:579  Campaign memory newCampaign */\n      tag_95\n      tag_96\n      jump\t// in\n    tag_95:\n        /* \"DonateCrypto.sol\":610:615  title */\n      dup9\n      dup9\n        /* \"DonateCrypto.sol\":590:615  newCampaign.title = title */\n      dup1\n      dup1\n      0x1f\n      add\n      0x20\n      dup1\n      swap2\n      div\n      mul\n      0x20\n      add\n      mload(0x40)\n      swap1\n      dup2\n      add\n      0x40\n      mstore\n      dup1\n      swap4\n      swap3\n      swap2\n      swap1\n      dup2\n      dup2\n      mstore\n      0x20\n      add\n      dup4\n      dup4\n      dup1\n      dup3\n      dup5\n      calldatacopy\n      0x00\n      dup2\n      dup5\n      add\n      mstore\n      not(0x1f)\n      0x1f\n      dup3\n      add\n      and\n      swap1\n      pop\n      dup1\n      dup4\n      add\n      swap3\n      pop\n      pop\n      pop\n      pop\n      pop\n      pop\n      pop\n        /* \"DonateCrypto.sol\":590:601  newCampaign */\n      dup2\n        /* \"DonateCrypto.sol\":590:607  newCampaign.title */\n      0x20\n      add\n        /* \"DonateCrypto.sol\":590:615  newCampaign.title = title */\n      dup2\n      swap1\n      mstore\n      pop\n        /* \"DonateCrypto.sol\":652:663  description */\n      dup7\n      dup7\n        /* \"DonateCrypto.sol\":626:663  newCampaign.description = description */\n      dup1\n      dup1\n      0x1f\n      add\n      0x20\n      dup1\n      swap2\n      div\n      mul\n      0x20\n      add\n      mload(0x40)\n      swap1\n      dup2\n      add\n      0x40\n      mstore\n      dup1\n      swap4\n      swap3\n      swap2\n      swap1\n      dup2\n      dup2\n      mstore\n      0x20\n      add\n      dup4\n      dup4\n      dup1\n      dup3\n      dup5\n      calldatacopy\n      0x00\n      dup2\n      dup5\n      add\n      mstore\n      not(0x1f)\n      0x1f\n      dup3\n      add\n      and\n      swap1\n      pop\n      dup1\n      dup4\n      add\n      swap3\n      pop\n      pop\n      pop\n      pop\n      pop\n      pop\n      pop\n        /* \"DonateCrypto.sol\":626:637  newCampaign */\n      dup2\n        /* \"DonateCrypto.sol\":626:649  newCampaign.description */\n      0x40\n      add\n        /* \"DonateCrypto.sol\":626:663  newCampaign.description = description */\n      dup2\n      swap1\n      mstore\n      pop\n        /* \"DonateCrypto.sol\":697:705  videoUrl */\n      dup5\n      dup5\n        /* \"DonateCrypto.sol\":674:705  newCampaign.videoUrl = videoUrl */\n      dup1\n      dup1\n      0x1f\n      add\n      0x20\n      dup1\n      swap2\n      div\n      mul\n      0x20\n      add\n      mload(0x40)\n      swap1\n      dup2\n      add\n      0x40\n      mstore\n      dup1\n      swap4\n      swap3\n      swap2\n      swap1\n      dup2\n      dup2\n      mstore\n      0x20\n      add\n      dup4\n      dup4\n      dup1\n      dup3\n      dup5\n      calldatacopy\n      0x00\n      dup2\n      dup5\n      add\n      mstore\n      not(0x1f)\n      0x1f\n      dup3\n      add\n      and\n      swap1\n      pop\n      dup1\n      dup4\n      add\n      swap3\n      pop\n      pop\n      pop\n      pop\n      pop\n      pop\n      pop\n        /* \"DonateCrypto.sol\":674:685  newCampaign */\n      dup2\n        /* \"DonateCrypto.sol\":674:694  newCampaign.videoUrl */\n      0x60\n      add\n        /* \"DonateCrypto.sol\":674:705  newCampaign.videoUrl = videoUrl */\n      dup2\n      swap1\n      mstore\n      pop\n        /* \"DonateCrypto.sol\":739:747  imageUrl */\n      dup3\n      dup3\n        /* \"DonateCrypto.sol\":716:747  newCampaign.imageUrl = imageUrl */\n      dup1\n      dup1\n      0x1f\n      add\n      0x20\n      dup1\n      swap2\n      div\n      mul\n      0x20\n      add\n      mload(0x40)\n      swap1\n      dup2\n      add\n      0x40\n      mstore\n      dup1\n      swap4\n      swap3\n      swap2\n      swap1\n      dup2\n      dup2\n      mstore\n      0x20\n      add\n      dup4\n      dup4\n      dup1\n      dup3\n      dup5\n      calldatacopy\n      0x00\n      dup2\n      dup5\n      add\n      mstore\n      not(0x1f)\n      0x1f\n      dup3\n      add\n      and\n      swap1\n      pop\n      dup1\n      dup4\n      add\n      swap3\n      pop\n      pop\n      pop\n      pop\n      pop\n      pop\n      pop\n        /* \"DonateCrypto.sol\":716:727  newCampaign */\n      dup2\n        /* \"DonateCrypto.sol\":716:736  newCampaign.imageUrl */\n      0x80\n      add\n        /* \"DonateCrypto.sol\":716:747  newCampaign.imageUrl = imageUrl */\n      dup2\n      swap1\n      mstore\n      pop\n        /* \"DonateCrypto.sol\":779:783  true */\n      0x01\n        /* \"DonateCrypto.sol\":758:769  newCampaign */\n      dup2\n        /* \"DonateCrypto.sol\":758:776  newCampaign.active */\n      0xc0\n      add\n        /* \"DonateCrypto.sol\":758:783  newCampaign.active = true */\n      swap1\n      iszero\n      iszero\n      swap1\n      dup2\n      iszero\n      iszero\n      dup2\n      mstore\n      pop\n      pop\n        /* \"DonateCrypto.sol\":815:825  msg.sender */\n      caller\n        /* \"DonateCrypto.sol\":794:805  newCampaign */\n      dup2\n        /* \"DonateCrypto.sol\":794:812  newCampaign.author */\n      0x00\n      add\n        /* \"DonateCrypto.sol\":794:825  newCampaign.author = msg.sender */\n      swap1\n      0xffffffffffffffffffffffffffffffffffffffff\n      and\n      swap1\n      dup2\n      0xffffffffffffffffffffffffffffffffffffffff\n      and\n      dup2\n      mstore\n      pop\n      pop\n        /* \"DonateCrypto.sol\":838:844  nextId */\n      0x01\n      0x00\n        /* \"DonateCrypto.sol\":838:846  nextId++ */\n      dup2\n      sload\n      dup1\n      swap3\n      swap2\n      swap1\n      tag_97\n      swap1\n      tag_98\n      jump\t// in\n    tag_97:\n      swap2\n      swap1\n      pop\n      sstore\n      pop\n        /* \"DonateCrypto.sol\":877:888  newCampaign */\n      dup1\n        /* \"DonateCrypto.sol\":857:866  campaigns */\n      0x02\n        /* \"DonateCrypto.sol\":857:874  campaigns[nextId] */\n      0x00\n        /* \"DonateCrypto.sol\":867:873  nextId */\n      sload(0x01)\n        /* \"DonateCrypto.sol\":857:874  campaigns[nextId] */\n      dup2\n      mstore\n      0x20\n      add\n      swap1\n      dup2\n      mstore\n      0x20\n      add\n      0x00\n      keccak256\n        /* \"DonateCrypto.sol\":857:888  campaigns[nextId] = newCampaign */\n      0x00\n      dup3\n      add\n      mload\n      dup2\n      0x00\n      add\n      exp(0x0100, 0x00)\n      dup2\n      sload\n      dup2\n      0xffffffffffffffffffffffffffffffffffffffff\n      mul\n      not\n      and\n      swap1\n      dup4\n      0xffffffffffffffffffffffffffffffffffffffff\n      and\n      mul\n      or\n      swap1\n      sstore\n      pop\n      0x20\n      dup3\n      add\n      mload\n      dup2\n      0x01\n      add\n      swap1\n      dup2\n      tag_99\n      swap2\n      swap1\n      tag_100\n      jump\t// in\n    tag_99:\n      pop\n      0x40\n      dup3\n      add\n      mload\n      dup2\n      0x02\n      add\n      swap1\n      dup2\n      tag_101\n      swap2\n      swap1\n      tag_100\n      jump\t// in\n    tag_101:\n      pop\n      0x60\n      dup3\n      add\n      mload\n      dup2\n      0x03\n      add\n      swap1\n      dup2\n      tag_102\n      swap2\n      swap1\n      tag_100\n      jump\t// in\n    tag_102:\n      pop\n      0x80\n      dup3\n      add\n      mload\n      dup2\n      0x04\n      add\n      swap1\n      dup2\n      tag_103\n      swap2\n      swap1\n      tag_100\n      jump\t// in\n    tag_103:\n      pop\n      0xa0\n      dup3\n      add\n      mload\n      dup2\n      0x05\n      add\n      sstore\n      0xc0\n      dup3\n      add\n      mload\n      dup2\n      0x06\n      add\n      exp(0x0100, 0x00)\n      dup2\n      sload\n      dup2\n      0xff\n      mul\n      not\n      and\n      swap1\n      dup4\n      iszero\n      iszero\n      mul\n      or\n      swap1\n      sstore\n      pop\n      swap1\n      pop\n      pop\n        /* \"DonateCrypto.sol\":541:896  {... */\n      pop\n        /* \"DonateCrypto.sol\":408:896  function addCampaign( string calldata title, string calldata description, string calldata videoUrl, string calldata imageUrl) public {... */\n      pop\n      pop\n      pop\n      pop\n      pop\n      pop\n      pop\n      pop\n      jump\t// out\n        /* \"DonateCrypto.sol\":904:1153  function donate(uint256 id)public payable {... */\n    tag_35:\n        /* \"DonateCrypto.sol\":976:977  0 */\n      0x00\n        /* \"DonateCrypto.sol\":965:974  msg.value */\n      callvalue\n        /* \"DonateCrypto.sol\":965:977  msg.value >0 */\n      gt\n        /* \"DonateCrypto.sol\":957:1016  require(msg.value >0, \"You must send a donation value > 0\") */\n      tag_105\n      jumpi\n      mload(0x40)\n      0x08c379a000000000000000000000000000000000000000000000000000000000\n      dup2\n      mstore\n      0x04\n      add\n      tag_106\n      swap1\n      tag_107\n      jump\t// in\n    tag_106:\n      mload(0x40)\n      dup1\n      swap2\n      sub\n      swap1\n      revert\n    tag_105:\n        /* \"DonateCrypto.sol\":1059:1063  true */\n      0x01\n        /* \"DonateCrypto.sol\":1035:1063  campaigns[id].active == true */\n      iszero\n      iszero\n        /* \"DonateCrypto.sol\":1035:1044  campaigns */\n      0x02\n        /* \"DonateCrypto.sol\":1035:1048  campaigns[id] */\n      0x00\n        /* \"DonateCrypto.sol\":1045:1047  id */\n      dup4\n        /* \"DonateCrypto.sol\":1035:1048  campaigns[id] */\n      dup2\n      mstore\n      0x20\n      add\n      swap1\n      dup2\n      mstore\n      0x20\n      add\n      0x00\n      keccak256\n        /* \"DonateCrypto.sol\":1035:1055  campaigns[id].active */\n      0x06\n      add\n      0x00\n      swap1\n      sload\n      swap1\n      0x0100\n      exp\n      swap1\n      div\n      0xff\n      and\n        /* \"DonateCrypto.sol\":1035:1063  campaigns[id].active == true */\n      iszero\n      iszero\n      eq\n        /* \"DonateCrypto.sol\":1027:1098  require(campaigns[id].active == true, \"Cannot donate to this campaign\") */\n      tag_108\n      jumpi\n      mload(0x40)\n      0x08c379a000000000000000000000000000000000000000000000000000000000\n      dup2\n      mstore\n      0x04\n      add\n      tag_109\n      swap1\n      tag_110\n      jump\t// in\n    tag_109:\n      mload(0x40)\n      dup1\n      swap2\n      sub\n      swap1\n      revert\n    tag_108:\n        /* \"DonateCrypto.sol\":1136:1145  msg.value */\n      callvalue\n        /* \"DonateCrypto.sol\":1111:1120  campaigns */\n      0x02\n        /* \"DonateCrypto.sol\":1111:1124  campaigns[id] */\n      0x00\n        /* \"DonateCrypto.sol\":1121:1123  id */\n      dup4\n        /* \"DonateCrypto.sol\":1111:1124  campaigns[id] */\n      dup2\n      mstore\n      0x20\n      add\n      swap1\n      dup2\n      mstore\n      0x20\n      add\n      0x00\n      keccak256\n        /* \"DonateCrypto.sol\":1111:1132  campaigns[id].balance */\n      0x05\n      add\n      0x00\n        /* \"DonateCrypto.sol\":1111:1145  campaigns[id].balance += msg.value */\n      dup3\n      dup3\n      sload\n      tag_111\n      swap2\n      swap1\n      tag_112\n      jump\t// in\n    tag_111:\n      swap3\n      pop\n      pop\n      dup2\n      swap1\n      sstore\n      pop\n        /* \"DonateCrypto.sol\":904:1153  function donate(uint256 id)public payable {... */\n      pop\n      jump\t// out\n    tag_96:\n      mload(0x40)\n      dup1\n      0xe0\n      add\n      0x40\n      mstore\n      dup1\n      and(0xffffffffffffffffffffffffffffffffffffffff, 0x00)\n      dup2\n      mstore\n      0x20\n      add\n      0x60\n      dup2\n      mstore\n      0x20\n      add\n      0x60\n      dup2\n      mstore\n      0x20\n      add\n      0x60\n      dup2\n      mstore\n      0x20\n      add\n      0x60\n      dup2\n      mstore\n      0x20\n      add\n      0x00\n      dup2\n      mstore\n      0x20\n      add\n      iszero(iszero(0x00))\n      dup2\n      mstore\n      pop\n      swap1\n      jump\t// out\n        /* \"#utility.yul\":88:205   */\n    tag_114:\n        /* \"#utility.yul\":197:198   */\n      0x00\n        /* \"#utility.yul\":194:195   */\n      dup1\n        /* \"#utility.yul\":187:199   */\n      revert\n        /* \"#utility.yul\":211:328   */\n    tag_115:\n        /* \"#utility.yul\":320:321   */\n      0x00\n        /* \"#utility.yul\":317:318   */\n      dup1\n        /* \"#utility.yul\":310:322   */\n      revert\n        /* \"#utility.yul\":334:411   */\n    tag_116:\n        /* \"#utility.yul\":371:378   */\n      0x00\n        /* \"#utility.yul\":400:405   */\n      dup2\n        /* \"#utility.yul\":389:405   */\n      swap1\n      pop\n        /* \"#utility.yul\":334:411   */\n      swap2\n      swap1\n      pop\n      jump\t// out\n        /* \"#utility.yul\":417:539   */\n    tag_117:\n        /* \"#utility.yul\":490:514   */\n      tag_171\n        /* \"#utility.yul\":508:513   */\n      dup2\n        /* \"#utility.yul\":490:514   */\n      tag_116\n      jump\t// in\n    tag_171:\n        /* \"#utility.yul\":483:488   */\n      dup2\n        /* \"#utility.yul\":480:515   */\n      eq\n        /* \"#utility.yul\":470:533   */\n      tag_172\n      jumpi\n        /* \"#utility.yul\":529:530   */\n      0x00\n        /* \"#utility.yul\":526:527   */\n      dup1\n        /* \"#utility.yul\":519:531   */\n      revert\n        /* \"#utility.yul\":470:533   */\n    tag_172:\n        /* \"#utility.yul\":417:539   */\n      pop\n      jump\t// out\n        /* \"#utility.yul\":545:684   */\n    tag_118:\n        /* \"#utility.yul\":591:596   */\n      0x00\n        /* \"#utility.yul\":629:635   */\n      dup2\n        /* \"#utility.yul\":616:636   */\n      calldataload\n        /* \"#utility.yul\":607:636   */\n      swap1\n      pop\n        /* \"#utility.yul\":645:678   */\n      tag_174\n        /* \"#utility.yul\":672:677   */\n      dup2\n        /* \"#utility.yul\":645:678   */\n      tag_117\n      jump\t// in\n    tag_174:\n        /* \"#utility.yul\":545:684   */\n      swap3\n      swap2\n      pop\n      pop\n      jump\t// out\n        /* \"#utility.yul\":690:1019   */\n    tag_11:\n        /* \"#utility.yul\":749:755   */\n      0x00\n        /* \"#utility.yul\":798:800   */\n      0x20\n        /* \"#utility.yul\":786:795   */\n      dup3\n        /* \"#utility.yul\":777:784   */\n      dup5\n        /* \"#utility.yul\":773:796   */\n      sub\n        /* \"#utility.yul\":769:801   */\n      slt\n        /* \"#utility.yul\":766:885   */\n      iszero\n      tag_176\n      jumpi\n        /* \"#utility.yul\":804:883   */\n      tag_177\n      tag_114\n      jump\t// in\n    tag_177:\n        /* \"#utility.yul\":766:885   */\n    tag_176:\n        /* \"#utility.yul\":924:925   */\n      0x00\n        /* \"#utility.yul\":949:1002   */\n      tag_178\n        /* \"#utility.yul\":994:1001   */\n      dup5\n        /* \"#utility.yul\":985:991   */\n      dup3\n        /* \"#utility.yul\":974:983   */\n      dup6\n        /* \"#utility.yul\":970:992   */\n      add\n        /* \"#utility.yul\":949:1002   */\n      tag_118\n      jump\t// in\n    tag_178:\n        /* \"#utility.yul\":939:1002   */\n      swap2\n      pop\n        /* \"#utility.yul\":895:1012   */\n      pop\n        /* \"#utility.yul\":690:1019   */\n      swap3\n      swap2\n      pop\n      pop\n      jump\t// out\n        /* \"#utility.yul\":1025:1151   */\n    tag_119:\n        /* \"#utility.yul\":1062:1069   */\n      0x00\n        /* \"#utility.yul\":1102:1144   */\n      0xffffffffffffffffffffffffffffffffffffffff\n        /* \"#utility.yul\":1095:1100   */\n      dup3\n        /* \"#utility.yul\":1091:1145   */\n      and\n        /* \"#utility.yul\":1080:1145   */\n      swap1\n      pop\n        /* \"#utility.yul\":1025:1151   */\n      swap2\n      swap1\n      pop\n      jump\t// out\n        /* \"#utility.yul\":1157:1253   */\n    tag_120:\n        /* \"#utility.yul\":1194:1201   */\n      0x00\n        /* \"#utility.yul\":1223:1247   */\n      tag_181\n        /* \"#utility.yul\":1241:1246   */\n      dup3\n        /* \"#utility.yul\":1223:1247   */\n      tag_119\n      jump\t// in\n    tag_181:\n        /* \"#utility.yul\":1212:1247   */\n      swap1\n      pop\n        /* \"#utility.yul\":1157:1253   */\n      swap2\n      swap1\n      pop\n      jump\t// out\n        /* \"#utility.yul\":1259:1377   */\n    tag_121:\n        /* \"#utility.yul\":1346:1370   */\n      tag_183\n        /* \"#utility.yul\":1364:1369   */\n      dup2\n        /* \"#utility.yul\":1346:1370   */\n      tag_120\n      jump\t// in\n    tag_183:\n        /* \"#utility.yul\":1341:1344   */\n      dup3\n        /* \"#utility.yul\":1334:1371   */\n      mstore\n        /* \"#utility.yul\":1259:1377   */\n      pop\n      pop\n      jump\t// out\n        /* \"#utility.yul\":1383:1482   */\n    tag_122:\n        /* \"#utility.yul\":1435:1441   */\n      0x00\n        /* \"#utility.yul\":1469:1474   */\n      dup2\n        /* \"#utility.yul\":1463:1475   */\n      mload\n        /* \"#utility.yul\":1453:1475   */\n      swap1\n      pop\n        /* \"#utility.yul\":1383:1482   */\n      swap2\n      swap1\n      pop\n      jump\t// out\n        /* \"#utility.yul\":1488:1657   */\n    tag_123:\n        /* \"#utility.yul\":1572:1583   */\n      0x00\n        /* \"#utility.yul\":1606:1612   */\n      dup3\n        /* \"#utility.yul\":1601:1604   */\n      dup3\n        /* \"#utility.yul\":1594:1613   */\n      mstore\n        /* \"#utility.yul\":1646:1650   */\n      0x20\n        /* \"#utility.yul\":1641:1644   */\n      dup3\n        /* \"#utility.yul\":1637:1651   */\n      add\n        /* \"#utility.yul\":1622:1651   */\n      swap1\n      pop\n        /* \"#utility.yul\":1488:1657   */\n      swap3\n      swap2\n      pop\n      pop\n      jump\t// out\n        /* \"#utility.yul\":1663:1909   */\n    tag_124:\n        /* \"#utility.yul\":1744:1745   */\n      0x00\n        /* \"#utility.yul\":1754:1867   */\n    tag_187:\n        /* \"#utility.yul\":1768:1774   */\n      dup4\n        /* \"#utility.yul\":1765:1766   */\n      dup2\n        /* \"#utility.yul\":1762:1775   */\n      lt\n        /* \"#utility.yul\":1754:1867   */\n      iszero\n      tag_189\n      jumpi\n        /* \"#utility.yul\":1853:1854   */\n      dup1\n        /* \"#utility.yul\":1848:1851   */\n      dup3\n        /* \"#utility.yul\":1844:1855   */\n      add\n        /* \"#utility.yul\":1838:1856   */\n      mload\n        /* \"#utility.yul\":1834:1835   */\n      dup2\n        /* \"#utility.yul\":1829:1832   */\n      dup5\n        /* \"#utility.yul\":1825:1836   */\n      add\n        /* \"#utility.yul\":1818:1857   */\n      mstore\n        /* \"#utility.yul\":1790:1792   */\n      0x20\n        /* \"#utility.yul\":1787:1788   */\n      dup2\n        /* \"#utility.yul\":1783:1793   */\n      add\n        /* \"#utility.yul\":1778:1793   */\n      swap1\n      pop\n        /* \"#utility.yul\":1754:1867   */\n      jump(tag_187)\n    tag_189:\n        /* \"#utility.yul\":1901:1902   */\n      0x00\n        /* \"#utility.yul\":1892:1898   */\n      dup5\n        /* \"#utility.yul\":1887:1890   */\n      dup5\n        /* \"#utility.yul\":1883:1899   */\n      add\n        /* \"#utility.yul\":1876:1903   */\n      mstore\n        /* \"#utility.yul\":1725:1909   */\n      pop\n        /* \"#utility.yul\":1663:1909   */\n      pop\n      pop\n      pop\n      jump\t// out\n        /* \"#utility.yul\":1915:2017   */\n    tag_125:\n        /* \"#utility.yul\":1956:1962   */\n      0x00\n        /* \"#utility.yul\":2007:2009   */\n      0x1f\n        /* \"#utility.yul\":2003:2010   */\n      not\n        /* \"#utility.yul\":1998:2000   */\n      0x1f\n        /* \"#utility.yul\":1991:1996   */\n      dup4\n        /* \"#utility.yul\":1987:2001   */\n      add\n        /* \"#utility.yul\":1983:2011   */\n      and\n        /* \"#utility.yul\":1973:2011   */\n      swap1\n      pop\n        /* \"#utility.yul\":1915:2017   */\n      swap2\n      swap1\n      pop\n      jump\t// out\n        /* \"#utility.yul\":2023:2400   */\n    tag_126:\n        /* \"#utility.yul\":2111:2114   */\n      0x00\n        /* \"#utility.yul\":2139:2178   */\n      tag_192\n        /* \"#utility.yul\":2172:2177   */\n      dup3\n        /* \"#utility.yul\":2139:2178   */\n      tag_122\n      jump\t// in\n    tag_192:\n        /* \"#utility.yul\":2194:2265   */\n      tag_193\n        /* \"#utility.yul\":2258:2264   */\n      dup2\n        /* \"#utility.yul\":2253:2256   */\n      dup6\n        /* \"#utility.yul\":2194:2265   */\n      tag_123\n      jump\t// in\n    tag_193:\n        /* \"#utility.yul\":2187:2265   */\n      swap4\n      pop\n        /* \"#utility.yul\":2274:2339   */\n      tag_194\n        /* \"#utility.yul\":2332:2338   */\n      dup2\n        /* \"#utility.yul\":2327:2330   */\n      dup6\n        /* \"#utility.yul\":2320:2324   */\n      0x20\n        /* \"#utility.yul\":2313:2318   */\n      dup7\n        /* \"#utility.yul\":2309:2325   */\n      add\n        /* \"#utility.yul\":2274:2339   */\n      tag_124\n      jump\t// in\n    tag_194:\n        /* \"#utility.yul\":2364:2393   */\n      tag_195\n        /* \"#utility.yul\":2386:2392   */\n      dup2\n        /* \"#utility.yul\":2364:2393   */\n      tag_125\n      jump\t// in\n    tag_195:\n        /* \"#utility.yul\":2359:2362   */\n      dup5\n        /* \"#utility.yul\":2355:2394   */\n      add\n        /* \"#utility.yul\":2348:2394   */\n      swap2\n      pop\n        /* \"#utility.yul\":2115:2400   */\n      pop\n        /* \"#utility.yul\":2023:2400   */\n      swap3\n      swap2\n      pop\n      pop\n      jump\t// out\n        /* \"#utility.yul\":2406:2524   */\n    tag_127:\n        /* \"#utility.yul\":2493:2517   */\n      tag_197\n        /* \"#utility.yul\":2511:2516   */\n      dup2\n        /* \"#utility.yul\":2493:2517   */\n      tag_116\n      jump\t// in\n    tag_197:\n        /* \"#utility.yul\":2488:2491   */\n      dup3\n        /* \"#utility.yul\":2481:2518   */\n      mstore\n        /* \"#utility.yul\":2406:2524   */\n      pop\n      pop\n      jump\t// out\n        /* \"#utility.yul\":2530:2620   */\n    tag_128:\n        /* \"#utility.yul\":2564:2571   */\n      0x00\n        /* \"#utility.yul\":2607:2612   */\n      dup2\n        /* \"#utility.yul\":2600:2613   */\n      iszero\n        /* \"#utility.yul\":2593:2614   */\n      iszero\n        /* \"#utility.yul\":2582:2614   */\n      swap1\n      pop\n        /* \"#utility.yul\":2530:2620   */\n      swap2\n      swap1\n      pop\n      jump\t// out\n        /* \"#utility.yul\":2626:2735   */\n    tag_129:\n        /* \"#utility.yul\":2707:2728   */\n      tag_200\n        /* \"#utility.yul\":2722:2727   */\n      dup2\n        /* \"#utility.yul\":2707:2728   */\n      tag_128\n      jump\t// in\n    tag_200:\n        /* \"#utility.yul\":2702:2705   */\n      dup3\n        /* \"#utility.yul\":2695:2729   */\n      mstore\n        /* \"#utility.yul\":2626:2735   */\n      pop\n      pop\n      jump\t// out\n        /* \"#utility.yul\":2741:3979   */\n    tag_14:\n        /* \"#utility.yul\":3076:3080   */\n      0x00\n        /* \"#utility.yul\":3114:3117   */\n      0xe0\n        /* \"#utility.yul\":3103:3112   */\n      dup3\n        /* \"#utility.yul\":3099:3118   */\n      add\n        /* \"#utility.yul\":3091:3118   */\n      swap1\n      pop\n        /* \"#utility.yul\":3128:3199   */\n      tag_202\n        /* \"#utility.yul\":3196:3197   */\n      0x00\n        /* \"#utility.yul\":3185:3194   */\n      dup4\n        /* \"#utility.yul\":3181:3198   */\n      add\n        /* \"#utility.yul\":3172:3178   */\n      dup11\n        /* \"#utility.yul\":3128:3199   */\n      tag_121\n      jump\t// in\n    tag_202:\n        /* \"#utility.yul\":3246:3255   */\n      dup2\n        /* \"#utility.yul\":3240:3244   */\n      dup2\n        /* \"#utility.yul\":3236:3256   */\n      sub\n        /* \"#utility.yul\":3231:3233   */\n      0x20\n        /* \"#utility.yul\":3220:3229   */\n      dup4\n        /* \"#utility.yul\":3216:3234   */\n      add\n        /* \"#utility.yul\":3209:3257   */\n      mstore\n        /* \"#utility.yul\":3274:3352   */\n      tag_203\n        /* \"#utility.yul\":3347:3351   */\n      dup2\n        /* \"#utility.yul\":3338:3344   */\n      dup10\n        /* \"#utility.yul\":3274:3352   */\n      tag_126\n      jump\t// in\n    tag_203:\n        /* \"#utility.yul\":3266:3352   */\n      swap1\n      pop\n        /* \"#utility.yul\":3399:3408   */\n      dup2\n        /* \"#utility.yul\":3393:3397   */\n      dup2\n        /* \"#utility.yul\":3389:3409   */\n      sub\n        /* \"#utility.yul\":3384:3386   */\n      0x40\n        /* \"#utility.yul\":3373:3382   */\n      dup4\n        /* \"#utility.yul\":3369:3387   */\n      add\n        /* \"#utility.yul\":3362:3410   */\n      mstore\n        /* \"#utility.yul\":3427:3505   */\n      tag_204\n        /* \"#utility.yul\":3500:3504   */\n      dup2\n        /* \"#utility.yul\":3491:3497   */\n      dup9\n        /* \"#utility.yul\":3427:3505   */\n      tag_126\n      jump\t// in\n    tag_204:\n        /* \"#utility.yul\":3419:3505   */\n      swap1\n      pop\n        /* \"#utility.yul\":3552:3561   */\n      dup2\n        /* \"#utility.yul\":3546:3550   */\n      dup2\n        /* \"#utility.yul\":3542:3562   */\n      sub\n        /* \"#utility.yul\":3537:3539   */\n      0x60\n        /* \"#utility.yul\":3526:3535   */\n      dup4\n        /* \"#utility.yul\":3522:3540   */\n      add\n        /* \"#utility.yul\":3515:3563   */\n      mstore\n        /* \"#utility.yul\":3580:3658   */\n      tag_205\n        /* \"#utility.yul\":3653:3657   */\n      dup2\n        /* \"#utility.yul\":3644:3650   */\n      dup8\n        /* \"#utility.yul\":3580:3658   */\n      tag_126\n      jump\t// in\n    tag_205:\n        /* \"#utility.yul\":3572:3658   */\n      swap1\n      pop\n        /* \"#utility.yul\":3706:3715   */\n      dup2\n        /* \"#utility.yul\":3700:3704   */\n      dup2\n        /* \"#utility.yul\":3696:3716   */\n      sub\n        /* \"#utility.yul\":3690:3693   */\n      0x80\n        /* \"#utility.yul\":3679:3688   */\n      dup4\n        /* \"#utility.yul\":3675:3694   */\n      add\n        /* \"#utility.yul\":3668:3717   */\n      mstore\n        /* \"#utility.yul\":3734:3812   */\n      tag_206\n        /* \"#utility.yul\":3807:3811   */\n      dup2\n        /* \"#utility.yul\":3798:3804   */\n      dup7\n        /* \"#utility.yul\":3734:3812   */\n      tag_126\n      jump\t// in\n    tag_206:\n        /* \"#utility.yul\":3726:3812   */\n      swap1\n      pop\n        /* \"#utility.yul\":3822:3895   */\n      tag_207\n        /* \"#utility.yul\":3890:3893   */\n      0xa0\n        /* \"#utility.yul\":3879:3888   */\n      dup4\n        /* \"#utility.yul\":3875:3894   */\n      add\n        /* \"#utility.yul\":3866:3872   */\n      dup6\n        /* \"#utility.yul\":3822:3895   */\n      tag_127\n      jump\t// in\n    tag_207:\n        /* \"#utility.yul\":3905:3972   */\n      tag_208\n        /* \"#utility.yul\":3967:3970   */\n      0xc0\n        /* \"#utility.yul\":3956:3965   */\n      dup4\n        /* \"#utility.yul\":3952:3971   */\n      add\n        /* \"#utility.yul\":3943:3949   */\n      dup5\n        /* \"#utility.yul\":3905:3972   */\n      tag_129\n      jump\t// in\n    tag_208:\n        /* \"#utility.yul\":2741:3979   */\n      swap9\n      swap8\n      pop\n      pop\n      pop\n      pop\n      pop\n      pop\n      pop\n      pop\n      jump\t// out\n        /* \"#utility.yul\":3985:4207   */\n    tag_23:\n        /* \"#utility.yul\":4078:4082   */\n      0x00\n        /* \"#utility.yul\":4116:4118   */\n      0x20\n        /* \"#utility.yul\":4105:4114   */\n      dup3\n        /* \"#utility.yul\":4101:4119   */\n      add\n        /* \"#utility.yul\":4093:4119   */\n      swap1\n      pop\n        /* \"#utility.yul\":4129:4200   */\n      tag_210\n        /* \"#utility.yul\":4197:4198   */\n      0x00\n        /* \"#utility.yul\":4186:4195   */\n      dup4\n        /* \"#utility.yul\":4182:4199   */\n      add\n        /* \"#utility.yul\":4173:4179   */\n      dup5\n        /* \"#utility.yul\":4129:4200   */\n      tag_127\n      jump\t// in\n    tag_210:\n        /* \"#utility.yul\":3985:4207   */\n      swap3\n      swap2\n      pop\n      pop\n      jump\t// out\n        /* \"#utility.yul\":4213:4330   */\n    tag_130:\n        /* \"#utility.yul\":4322:4323   */\n      0x00\n        /* \"#utility.yul\":4319:4320   */\n      dup1\n        /* \"#utility.yul\":4312:4324   */\n      revert\n        /* \"#utility.yul\":4336:4453   */\n    tag_131:\n        /* \"#utility.yul\":4445:4446   */\n      0x00\n        /* \"#utility.yul\":4442:4443   */\n      dup1\n        /* \"#utility.yul\":4435:4447   */\n      revert\n        /* \"#utility.yul\":4459:4576   */\n    tag_132:\n        /* \"#utility.yul\":4568:4569   */\n      0x00\n        /* \"#utility.yul\":4565:4566   */\n      dup1\n        /* \"#utility.yul\":4558:4570   */\n      revert\n        /* \"#utility.yul\":4596:5149   */\n    tag_133:\n        /* \"#utility.yul\":4654:4662   */\n      0x00\n        /* \"#utility.yul\":4664:4670   */\n      dup1\n        /* \"#utility.yul\":4714:4717   */\n      dup4\n        /* \"#utility.yul\":4707:4711   */\n      0x1f\n        /* \"#utility.yul\":4699:4705   */\n      dup5\n        /* \"#utility.yul\":4695:4712   */\n      add\n        /* \"#utility.yul\":4691:4718   */\n      slt\n        /* \"#utility.yul\":4681:4803   */\n      tag_215\n      jumpi\n        /* \"#utility.yul\":4722:4801   */\n      tag_216\n      tag_130\n      jump\t// in\n    tag_216:\n        /* \"#utility.yul\":4681:4803   */\n    tag_215:\n        /* \"#utility.yul\":4835:4841   */\n      dup3\n        /* \"#utility.yul\":4822:4842   */\n      calldataload\n        /* \"#utility.yul\":4812:4842   */\n      swap1\n      pop\n        /* \"#utility.yul\":4865:4883   */\n      0xffffffffffffffff\n        /* \"#utility.yul\":4857:4863   */\n      dup2\n        /* \"#utility.yul\":4854:4884   */\n      gt\n        /* \"#utility.yul\":4851:4968   */\n      iszero\n      tag_217\n      jumpi\n        /* \"#utility.yul\":4887:4966   */\n      tag_218\n      tag_131\n      jump\t// in\n    tag_218:\n        /* \"#utility.yul\":4851:4968   */\n    tag_217:\n        /* \"#utility.yul\":5001:5005   */\n      0x20\n        /* \"#utility.yul\":4993:4999   */\n      dup4\n        /* \"#utility.yul\":4989:5006   */\n      add\n        /* \"#utility.yul\":4977:5006   */\n      swap2\n      pop\n        /* \"#utility.yul\":5055:5058   */\n      dup4\n        /* \"#utility.yul\":5047:5051   */\n      0x01\n        /* \"#utility.yul\":5039:5045   */\n      dup3\n        /* \"#utility.yul\":5035:5052   */\n      mul\n        /* \"#utility.yul\":5025:5033   */\n      dup4\n        /* \"#utility.yul\":5021:5053   */\n      add\n        /* \"#utility.yul\":5018:5059   */\n      gt\n        /* \"#utility.yul\":5015:5143   */\n      iszero\n      tag_219\n      jumpi\n        /* \"#utility.yul\":5062:5141   */\n      tag_220\n      tag_132\n      jump\t// in\n    tag_220:\n        /* \"#utility.yul\":5015:5143   */\n    tag_219:\n        /* \"#utility.yul\":4596:5149   */\n      swap3\n      pop\n      swap3\n      swap1\n      pop\n      jump\t// out\n        /* \"#utility.yul\":5155:6720   */\n    tag_31:\n        /* \"#utility.yul\":5289:5295   */\n      0x00\n        /* \"#utility.yul\":5297:5303   */\n      dup1\n        /* \"#utility.yul\":5305:5311   */\n      0x00\n        /* \"#utility.yul\":5313:5319   */\n      dup1\n        /* \"#utility.yul\":5321:5327   */\n      0x00\n        /* \"#utility.yul\":5329:5335   */\n      dup1\n        /* \"#utility.yul\":5337:5343   */\n      0x00\n        /* \"#utility.yul\":5345:5351   */\n      dup1\n        /* \"#utility.yul\":5394:5397   */\n      0x80\n        /* \"#utility.yul\":5382:5391   */\n      dup10\n        /* \"#utility.yul\":5373:5380   */\n      dup12\n        /* \"#utility.yul\":5369:5392   */\n      sub\n        /* \"#utility.yul\":5365:5398   */\n      slt\n        /* \"#utility.yul\":5362:5482   */\n      iszero\n      tag_222\n      jumpi\n        /* \"#utility.yul\":5401:5480   */\n      tag_223\n      tag_114\n      jump\t// in\n    tag_223:\n        /* \"#utility.yul\":5362:5482   */\n    tag_222:\n        /* \"#utility.yul\":5549:5550   */\n      0x00\n        /* \"#utility.yul\":5538:5547   */\n      dup10\n        /* \"#utility.yul\":5534:5551   */\n      add\n        /* \"#utility.yul\":5521:5552   */\n      calldataload\n        /* \"#utility.yul\":5579:5597   */\n      0xffffffffffffffff\n        /* \"#utility.yul\":5571:5577   */\n      dup2\n        /* \"#utility.yul\":5568:5598   */\n      gt\n        /* \"#utility.yul\":5565:5682   */\n      iszero\n      tag_224\n      jumpi\n        /* \"#utility.yul\":5601:5680   */\n      tag_225\n      tag_115\n      jump\t// in\n    tag_225:\n        /* \"#utility.yul\":5565:5682   */\n    tag_224:\n        /* \"#utility.yul\":5714:5779   */\n      tag_226\n        /* \"#utility.yul\":5771:5778   */\n      dup12\n        /* \"#utility.yul\":5762:5768   */\n      dup3\n        /* \"#utility.yul\":5751:5760   */\n      dup13\n        /* \"#utility.yul\":5747:5769   */\n      add\n        /* \"#utility.yul\":5714:5779   */\n      tag_133\n      jump\t// in\n    tag_226:\n        /* \"#utility.yul\":5696:5779   */\n      swap9\n      pop\n      swap9\n      pop\n        /* \"#utility.yul\":5492:5789   */\n      pop\n        /* \"#utility.yul\":5856:5858   */\n      0x20\n        /* \"#utility.yul\":5845:5854   */\n      dup10\n        /* \"#utility.yul\":5841:5859   */\n      add\n        /* \"#utility.yul\":5828:5860   */\n      calldataload\n        /* \"#utility.yul\":5887:5905   */\n      0xffffffffffffffff\n        /* \"#utility.yul\":5879:5885   */\n      dup2\n        /* \"#utility.yul\":5876:5906   */\n      gt\n        /* \"#utility.yul\":5873:5990   */\n      iszero\n      tag_227\n      jumpi\n        /* \"#utility.yul\":5909:5988   */\n      tag_228\n      tag_115\n      jump\t// in\n    tag_228:\n        /* \"#utility.yul\":5873:5990   */\n    tag_227:\n        /* \"#utility.yul\":6022:6087   */\n      tag_229\n        /* \"#utility.yul\":6079:6086   */\n      dup12\n        /* \"#utility.yul\":6070:6076   */\n      dup3\n        /* \"#utility.yul\":6059:6068   */\n      dup13\n        /* \"#utility.yul\":6055:6077   */\n      add\n        /* \"#utility.yul\":6022:6087   */\n      tag_133\n      jump\t// in\n    tag_229:\n        /* \"#utility.yul\":6004:6087   */\n      swap7\n      pop\n      swap7\n      pop\n        /* \"#utility.yul\":5799:6097   */\n      pop\n        /* \"#utility.yul\":6164:6166   */\n      0x40\n        /* \"#utility.yul\":6153:6162   */\n      dup10\n        /* \"#utility.yul\":6149:6167   */\n      add\n        /* \"#utility.yul\":6136:6168   */\n      calldataload\n        /* \"#utility.yul\":6195:6213   */\n      0xffffffffffffffff\n        /* \"#utility.yul\":6187:6193   */\n      dup2\n        /* \"#utility.yul\":6184:6214   */\n      gt\n        /* \"#utility.yul\":6181:6298   */\n      iszero\n      tag_230\n      jumpi\n        /* \"#utility.yul\":6217:6296   */\n      tag_231\n      tag_115\n      jump\t// in\n    tag_231:\n        /* \"#utility.yul\":6181:6298   */\n    tag_230:\n        /* \"#utility.yul\":6330:6395   */\n      tag_232\n        /* \"#utility.yul\":6387:6394   */\n      dup12\n        /* \"#utility.yul\":6378:6384   */\n      dup3\n        /* \"#utility.yul\":6367:6376   */\n      dup13\n        /* \"#utility.yul\":6363:6385   */\n      add\n        /* \"#utility.yul\":6330:6395   */\n      tag_133\n      jump\t// in\n    tag_232:\n        /* \"#utility.yul\":6312:6395   */\n      swap5\n      pop\n      swap5\n      pop\n        /* \"#utility.yul\":6107:6405   */\n      pop\n        /* \"#utility.yul\":6472:6474   */\n      0x60\n        /* \"#utility.yul\":6461:6470   */\n      dup10\n        /* \"#utility.yul\":6457:6475   */\n      add\n        /* \"#utility.yul\":6444:6476   */\n      calldataload\n        /* \"#utility.yul\":6503:6521   */\n      0xffffffffffffffff\n        /* \"#utility.yul\":6495:6501   */\n      dup2\n        /* \"#utility.yul\":6492:6522   */\n      gt\n        /* \"#utility.yul\":6489:6606   */\n      iszero\n      tag_233\n      jumpi\n        /* \"#utility.yul\":6525:6604   */\n      tag_234\n      tag_115\n      jump\t// in\n    tag_234:\n        /* \"#utility.yul\":6489:6606   */\n    tag_233:\n        /* \"#utility.yul\":6638:6703   */\n      tag_235\n        /* \"#utility.yul\":6695:6702   */\n      dup12\n        /* \"#utility.yul\":6686:6692   */\n      dup3\n        /* \"#utility.yul\":6675:6684   */\n      dup13\n        /* \"#utility.yul\":6671:6693   */\n      add\n        /* \"#utility.yul\":6638:6703   */\n      tag_133\n      jump\t// in\n    tag_235:\n        /* \"#utility.yul\":6620:6703   */\n      swap3\n      pop\n      swap3\n      pop\n        /* \"#utility.yul\":6415:6713   */\n      pop\n        /* \"#utility.yul\":5155:6720   */\n      swap3\n      swap6\n      swap9\n      pop\n      swap3\n      swap6\n      swap9\n      swap1\n      swap4\n      swap7\n      pop\n      jump\t// out\n        /* \"#utility.yul\":6726:6906   */\n    tag_134:\n        /* \"#utility.yul\":6774:6851   */\n      0x4e487b7100000000000000000000000000000000000000000000000000000000\n        /* \"#utility.yul\":6771:6772   */\n      0x00\n        /* \"#utility.yul\":6764:6852   */\n      mstore\n        /* \"#utility.yul\":6871:6875   */\n      0x22\n        /* \"#utility.yul\":6868:6869   */\n      0x04\n        /* \"#utility.yul\":6861:6876   */\n      mstore\n        /* \"#utility.yul\":6895:6899   */\n      0x24\n        /* \"#utility.yul\":6892:6893   */\n      0x00\n        /* \"#utility.yul\":6885:6900   */\n      revert\n        /* \"#utility.yul\":6912:7232   */\n    tag_37:\n        /* \"#utility.yul\":6956:6962   */\n      0x00\n        /* \"#utility.yul\":6993:6994   */\n      0x02\n        /* \"#utility.yul\":6987:6991   */\n      dup3\n        /* \"#utility.yul\":6983:6995   */\n      div\n        /* \"#utility.yul\":6973:6995   */\n      swap1\n      pop\n        /* \"#utility.yul\":7040:7041   */\n      0x01\n        /* \"#utility.yul\":7034:7038   */\n      dup3\n        /* \"#utility.yul\":7030:7042   */\n      and\n        /* \"#utility.yul\":7061:7079   */\n      dup1\n        /* \"#utility.yul\":7051:7132   */\n      tag_238\n      jumpi\n        /* \"#utility.yul\":7117:7121   */\n      0x7f\n        /* \"#utility.yul\":7109:7115   */\n      dup3\n        /* \"#utility.yul\":7105:7122   */\n      and\n        /* \"#utility.yul\":7095:7122   */\n      swap2\n      pop\n        /* \"#utility.yul\":7051:7132   */\n    tag_238:\n        /* \"#utility.yul\":7179:7181   */\n      0x20\n        /* \"#utility.yul\":7171:7177   */\n      dup3\n        /* \"#utility.yul\":7168:7182   */\n      lt\n        /* \"#utility.yul\":7148:7166   */\n      dup2\n        /* \"#utility.yul\":7145:7183   */\n      sub\n        /* \"#utility.yul\":7142:7226   */\n      tag_239\n      jumpi\n        /* \"#utility.yul\":7198:7216   */\n      tag_240\n      tag_134\n      jump\t// in\n    tag_240:\n        /* \"#utility.yul\":7142:7226   */\n    tag_239:\n        /* \"#utility.yul\":6963:7232   */\n      pop\n        /* \"#utility.yul\":6912:7232   */\n      swap2\n      swap1\n      pop\n      jump\t// out\n        /* \"#utility.yul\":7238:7414   */\n    tag_135:\n        /* \"#utility.yul\":7378:7406   */\n      0x596f7520646f206e6f742068617665207065726d697373696f6e000000000000\n        /* \"#utility.yul\":7374:7375   */\n      0x00\n        /* \"#utility.yul\":7366:7372   */\n      dup3\n        /* \"#utility.yul\":7362:7376   */\n      add\n        /* \"#utility.yul\":7355:7407   */\n      mstore\n        /* \"#utility.yul\":7238:7414   */\n      pop\n      jump\t// out\n        /* \"#utility.yul\":7420:7786   */\n    tag_136:\n        /* \"#utility.yul\":7562:7565   */\n      0x00\n        /* \"#utility.yul\":7583:7650   */\n      tag_243\n        /* \"#utility.yul\":7647:7649   */\n      0x1a\n        /* \"#utility.yul\":7642:7645   */\n      dup4\n        /* \"#utility.yul\":7583:7650   */\n      tag_123\n      jump\t// in\n    tag_243:\n        /* \"#utility.yul\":7576:7650   */\n      swap2\n      pop\n        /* \"#utility.yul\":7659:7752   */\n      tag_244\n        /* \"#utility.yul\":7748:7751   */\n      dup3\n        /* \"#utility.yul\":7659:7752   */\n      tag_135\n      jump\t// in\n    tag_244:\n        /* \"#utility.yul\":7777:7779   */\n      0x20\n        /* \"#utility.yul\":7772:7775   */\n      dup3\n        /* \"#utility.yul\":7768:7780   */\n      add\n        /* \"#utility.yul\":7761:7780   */\n      swap1\n      pop\n        /* \"#utility.yul\":7420:7786   */\n      swap2\n      swap1\n      pop\n      jump\t// out\n        /* \"#utility.yul\":7792:8211   */\n    tag_80:\n        /* \"#utility.yul\":7958:7962   */\n      0x00\n        /* \"#utility.yul\":7996:7998   */\n      0x20\n        /* \"#utility.yul\":7985:7994   */\n      dup3\n        /* \"#utility.yul\":7981:7999   */\n      add\n        /* \"#utility.yul\":7973:7999   */\n      swap1\n      pop\n        /* \"#utility.yul\":8045:8054   */\n      dup2\n        /* \"#utility.yul\":8039:8043   */\n      dup2\n        /* \"#utility.yul\":8035:8055   */\n      sub\n        /* \"#utility.yul\":8031:8032   */\n      0x00\n        /* \"#utility.yul\":8020:8029   */\n      dup4\n        /* \"#utility.yul\":8016:8033   */\n      add\n        /* \"#utility.yul\":8009:8056   */\n      mstore\n        /* \"#utility.yul\":8073:8204   */\n      tag_246\n        /* \"#utility.yul\":8199:8203   */\n      dup2\n        /* \"#utility.yul\":8073:8204   */\n      tag_136\n      jump\t// in\n    tag_246:\n        /* \"#utility.yul\":8065:8204   */\n      swap1\n      pop\n        /* \"#utility.yul\":7792:8211   */\n      swap2\n      swap1\n      pop\n      jump\t// out\n        /* \"#utility.yul\":8217:8390   */\n    tag_137:\n        /* \"#utility.yul\":8357:8382   */\n      0x546869732063616d706169676e20697320636c6f736564000000000000000000\n        /* \"#utility.yul\":8353:8354   */\n      0x00\n        /* \"#utility.yul\":8345:8351   */\n      dup3\n        /* \"#utility.yul\":8341:8355   */\n      add\n        /* \"#utility.yul\":8334:8383   */\n      mstore\n        /* \"#utility.yul\":8217:8390   */\n      pop\n      jump\t// out\n        /* \"#utility.yul\":8396:8762   */\n    tag_138:\n        /* \"#utility.yul\":8538:8541   */\n      0x00\n        /* \"#utility.yul\":8559:8626   */\n      tag_249\n        /* \"#utility.yul\":8623:8625   */\n      0x17\n        /* \"#utility.yul\":8618:8621   */\n      dup4\n        /* \"#utility.yul\":8559:8626   */\n      tag_123\n      jump\t// in\n    tag_249:\n        /* \"#utility.yul\":8552:8626   */\n      swap2\n      pop\n        /* \"#utility.yul\":8635:8728   */\n      tag_250\n        /* \"#utility.yul\":8724:8727   */\n      dup3\n        /* \"#utility.yul\":8635:8728   */\n      tag_137\n      jump\t// in\n    tag_250:\n        /* \"#utility.yul\":8753:8755   */\n      0x20\n        /* \"#utility.yul\":8748:8751   */\n      dup3\n        /* \"#utility.yul\":8744:8756   */\n      add\n        /* \"#utility.yul\":8737:8756   */\n      swap1\n      pop\n        /* \"#utility.yul\":8396:8762   */\n      swap2\n      swap1\n      pop\n      jump\t// out\n        /* \"#utility.yul\":8768:9187   */\n    tag_83:\n        /* \"#utility.yul\":8934:8938   */\n      0x00\n        /* \"#utility.yul\":8972:8974   */\n      0x20\n        /* \"#utility.yul\":8961:8970   */\n      dup3\n        /* \"#utility.yul\":8957:8975   */\n      add\n        /* \"#utility.yul\":8949:8975   */\n      swap1\n      pop\n        /* \"#utility.yul\":9021:9030   */\n      dup2\n        /* \"#utility.yul\":9015:9019   */\n      dup2\n        /* \"#utility.yul\":9011:9031   */\n      sub\n        /* \"#utility.yul\":9007:9008   */\n      0x00\n        /* \"#utility.yul\":8996:9005   */\n      dup4\n        /* \"#utility.yul\":8992:9009   */\n      add\n        /* \"#utility.yul\":8985:9032   */\n      mstore\n        /* \"#utility.yul\":9049:9180   */\n      tag_252\n        /* \"#utility.yul\":9175:9179   */\n      dup2\n        /* \"#utility.yul\":9049:9180   */\n      tag_138\n      jump\t// in\n    tag_252:\n        /* \"#utility.yul\":9041:9180   */\n      swap1\n      pop\n        /* \"#utility.yul\":8768:9187   */\n      swap2\n      swap1\n      pop\n      jump\t// out\n        /* \"#utility.yul\":9193:9423   */\n    tag_139:\n        /* \"#utility.yul\":9333:9367   */\n      0x546869732063616d706169676e20646f6573206e6f74206861766520656e6f75\n        /* \"#utility.yul\":9329:9330   */\n      0x00\n        /* \"#utility.yul\":9321:9327   */\n      dup3\n        /* \"#utility.yul\":9317:9331   */\n      add\n        /* \"#utility.yul\":9310:9368   */\n      mstore\n        /* \"#utility.yul\":9402:9415   */\n      0x6768742062616c616e6365000000000000000000000000000000000000000000\n        /* \"#utility.yul\":9397:9399   */\n      0x20\n        /* \"#utility.yul\":9389:9395   */\n      dup3\n        /* \"#utility.yul\":9385:9400   */\n      add\n        /* \"#utility.yul\":9378:9416   */\n      mstore\n        /* \"#utility.yul\":9193:9423   */\n      pop\n      jump\t// out\n        /* \"#utility.yul\":9429:9795   */\n    tag_140:\n        /* \"#utility.yul\":9571:9574   */\n      0x00\n        /* \"#utility.yul\":9592:9659   */\n      tag_255\n        /* \"#utility.yul\":9656:9658   */\n      0x2b\n        /* \"#utility.yul\":9651:9654   */\n      dup4\n        /* \"#utility.yul\":9592:9659   */\n      tag_123\n      jump\t// in\n    tag_255:\n        /* \"#utility.yul\":9585:9659   */\n      swap2\n      pop\n        /* \"#utility.yul\":9668:9761   */\n      tag_256\n        /* \"#utility.yul\":9757:9760   */\n      dup3\n        /* \"#utility.yul\":9668:9761   */\n      tag_139\n      jump\t// in\n    tag_256:\n        /* \"#utility.yul\":9786:9788   */\n      0x40\n        /* \"#utility.yul\":9781:9784   */\n      dup3\n        /* \"#utility.yul\":9777:9789   */\n      add\n        /* \"#utility.yul\":9770:9789   */\n      swap1\n      pop\n        /* \"#utility.yul\":9429:9795   */\n      swap2\n      swap1\n      pop\n      jump\t// out\n        /* \"#utility.yul\":9801:10220   */\n    tag_86:\n        /* \"#utility.yul\":9967:9971   */\n      0x00\n        /* \"#utility.yul\":10005:10007   */\n      0x20\n        /* \"#utility.yul\":9994:10003   */\n      dup3\n        /* \"#utility.yul\":9990:10008   */\n      add\n        /* \"#utility.yul\":9982:10008   */\n      swap1\n      pop\n        /* \"#utility.yul\":10054:10063   */\n      dup2\n        /* \"#utility.yul\":10048:10052   */\n      dup2\n        /* \"#utility.yul\":10044:10064   */\n      sub\n        /* \"#utility.yul\":10040:10041   */\n      0x00\n        /* \"#utility.yul\":10029:10038   */\n      dup4\n        /* \"#utility.yul\":10025:10042   */\n      add\n        /* \"#utility.yul\":10018:10065   */\n      mstore\n        /* \"#utility.yul\":10082:10213   */\n      tag_258\n        /* \"#utility.yul\":10208:10212   */\n      dup2\n        /* \"#utility.yul\":10082:10213   */\n      tag_140\n      jump\t// in\n    tag_258:\n        /* \"#utility.yul\":10074:10213   */\n      swap1\n      pop\n        /* \"#utility.yul\":9801:10220   */\n      swap2\n      swap1\n      pop\n      jump\t// out\n        /* \"#utility.yul\":10226:10406   */\n    tag_141:\n        /* \"#utility.yul\":10274:10351   */\n      0x4e487b7100000000000000000000000000000000000000000000000000000000\n        /* \"#utility.yul\":10271:10272   */\n      0x00\n        /* \"#utility.yul\":10264:10352   */\n      mstore\n        /* \"#utility.yul\":10371:10375   */\n      0x11\n        /* \"#utility.yul\":10368:10369   */\n      0x04\n        /* \"#utility.yul\":10361:10376   */\n      mstore\n        /* \"#utility.yul\":10395:10399   */\n      0x24\n        /* \"#utility.yul\":10392:10393   */\n      0x00\n        /* \"#utility.yul\":10385:10400   */\n      revert\n        /* \"#utility.yul\":10412:10606   */\n    tag_88:\n        /* \"#utility.yul\":10452:10456   */\n      0x00\n        /* \"#utility.yul\":10472:10492   */\n      tag_261\n        /* \"#utility.yul\":10490:10491   */\n      dup3\n        /* \"#utility.yul\":10472:10492   */\n      tag_116\n      jump\t// in\n    tag_261:\n        /* \"#utility.yul\":10467:10492   */\n      swap2\n      pop\n        /* \"#utility.yul\":10506:10526   */\n      tag_262\n        /* \"#utility.yul\":10524:10525   */\n      dup4\n        /* \"#utility.yul\":10506:10526   */\n      tag_116\n      jump\t// in\n    tag_262:\n        /* \"#utility.yul\":10501:10526   */\n      swap3\n      pop\n        /* \"#utility.yul\":10550:10551   */\n      dup3\n        /* \"#utility.yul\":10547:10548   */\n      dup3\n        /* \"#utility.yul\":10543:10552   */\n      sub\n        /* \"#utility.yul\":10535:10552   */\n      swap1\n      pop\n        /* \"#utility.yul\":10574:10575   */\n      dup2\n        /* \"#utility.yul\":10568:10572   */\n      dup2\n        /* \"#utility.yul\":10565:10576   */\n      gt\n        /* \"#utility.yul\":10562:10599   */\n      iszero\n      tag_263\n      jumpi\n        /* \"#utility.yul\":10579:10597   */\n      tag_264\n      tag_141\n      jump\t// in\n    tag_264:\n        /* \"#utility.yul\":10562:10599   */\n    tag_263:\n        /* \"#utility.yul\":10412:10606   */\n      swap3\n      swap2\n      pop\n      pop\n      jump\t// out\n        /* \"#utility.yul\":10612:10759   */\n    tag_142:\n        /* \"#utility.yul\":10713:10724   */\n      0x00\n        /* \"#utility.yul\":10750:10753   */\n      dup2\n        /* \"#utility.yul\":10735:10753   */\n      swap1\n      pop\n        /* \"#utility.yul\":10612:10759   */\n      swap3\n      swap2\n      pop\n      pop\n      jump\t// out\n        /* \"#utility.yul\":10765:10879   */\n    tag_143:\n      pop\n      jump\t// out\n        /* \"#utility.yul\":10885:11283   */\n    tag_144:\n        /* \"#utility.yul\":11044:11047   */\n      0x00\n        /* \"#utility.yul\":11065:11148   */\n      tag_268\n        /* \"#utility.yul\":11146:11147   */\n      0x00\n        /* \"#utility.yul\":11141:11144   */\n      dup4\n        /* \"#utility.yul\":11065:11148   */\n      tag_142\n      jump\t// in\n    tag_268:\n        /* \"#utility.yul\":11058:11148   */\n      swap2\n      pop\n        /* \"#utility.yul\":11157:11250   */\n      tag_269\n        /* \"#utility.yul\":11246:11249   */\n      dup3\n        /* \"#utility.yul\":11157:11250   */\n      tag_143\n      jump\t// in\n    tag_269:\n        /* \"#utility.yul\":11275:11276   */\n      0x00\n        /* \"#utility.yul\":11270:11273   */\n      dup3\n        /* \"#utility.yul\":11266:11277   */\n      add\n        /* \"#utility.yul\":11259:11277   */\n      swap1\n      pop\n        /* \"#utility.yul\":10885:11283   */\n      swap2\n      swap1\n      pop\n      jump\t// out\n        /* \"#utility.yul\":11289:11668   */\n    tag_90:\n        /* \"#utility.yul\":11473:11476   */\n      0x00\n        /* \"#utility.yul\":11495:11642   */\n      tag_271\n        /* \"#utility.yul\":11638:11641   */\n      dup3\n        /* \"#utility.yul\":11495:11642   */\n      tag_144\n      jump\t// in\n    tag_271:\n        /* \"#utility.yul\":11488:11642   */\n      swap2\n      pop\n        /* \"#utility.yul\":11659:11662   */\n      dup2\n        /* \"#utility.yul\":11652:11662   */\n      swap1\n      pop\n        /* \"#utility.yul\":11289:11668   */\n      swap2\n      swap1\n      pop\n      jump\t// out\n        /* \"#utility.yul\":11674:11907   */\n    tag_98:\n        /* \"#utility.yul\":11713:11716   */\n      0x00\n        /* \"#utility.yul\":11736:11760   */\n      tag_273\n        /* \"#utility.yul\":11754:11759   */\n      dup3\n        /* \"#utility.yul\":11736:11760   */\n      tag_116\n      jump\t// in\n    tag_273:\n        /* \"#utility.yul\":11727:11760   */\n      swap2\n      pop\n        /* \"#utility.yul\":11782:11848   */\n      0xffffffffffffffffffffffffffffffffffffffffffffffffffffffffffffffff\n        /* \"#utility.yul\":11775:11780   */\n      dup3\n        /* \"#utility.yul\":11772:11849   */\n      sub\n        /* \"#utility.yul\":11769:11872   */\n      tag_274\n      jumpi\n        /* \"#utility.yul\":11852:11870   */\n      tag_275\n      tag_141\n      jump\t// in\n    tag_275:\n        /* \"#utility.yul\":11769:11872   */\n    tag_274:\n        /* \"#utility.yul\":11899:11900   */\n      0x01\n        /* \"#utility.yul\":11892:11897   */\n      dup3\n        /* \"#utility.yul\":11888:11901   */\n      add\n        /* \"#utility.yul\":11881:11901   */\n      swap1\n      pop\n        /* \"#utility.yul\":11674:11907   */\n      swap2\n      swap1\n      pop\n      jump\t// out\n        /* \"#utility.yul\":11913:12093   */\n    tag_145:\n        /* \"#utility.yul\":11961:12038   */\n      0x4e487b7100000000000000000000000000000000000000000000000000000000\n        /* \"#utility.yul\":11958:11959   */\n      0x00\n        /* \"#utility.yul\":11951:12039   */\n      mstore\n        /* \"#utility.yul\":12058:12062   */\n      0x41\n        /* \"#utility.yul\":12055:12056   */\n      0x04\n        /* \"#utility.yul\":12048:12063   */\n      mstore\n        /* \"#utility.yul\":12082:12086   */\n      0x24\n        /* \"#utility.yul\":12079:12080   */\n      0x00\n        /* \"#utility.yul\":12072:12087   */\n      revert\n        /* \"#utility.yul\":12099:12240   */\n    tag_146:\n        /* \"#utility.yul\":12148:12152   */\n      0x00\n        /* \"#utility.yul\":12171:12174   */\n      dup2\n        /* \"#utility.yul\":12163:12174   */\n      swap1\n      pop\n        /* \"#utility.yul\":12194:12197   */\n      dup2\n        /* \"#utility.yul\":12191:12192   */\n      0x00\n        /* \"#utility.yul\":12184:12198   */\n      mstore\n        /* \"#utility.yul\":12228:12232   */\n      0x20\n        /* \"#utility.yul\":12225:12226   */\n      0x00\n        /* \"#utility.yul\":12215:12233   */\n      keccak256\n        /* \"#utility.yul\":12207:12233   */\n      swap1\n      pop\n        /* \"#utility.yul\":12099:12240   */\n      swap2\n      swap1\n      pop\n      jump\t// out\n        /* \"#utility.yul\":12246:12339   */\n    tag_147:\n        /* \"#utility.yul\":12283:12289   */\n      0x00\n        /* \"#utility.yul\":12330:12332   */\n      0x20\n        /* \"#utility.yul\":12325:12327   */\n      0x1f\n        /* \"#utility.yul\":12318:12323   */\n      dup4\n        /* \"#utility.yul\":12314:12328   */\n      add\n        /* \"#utility.yul\":12310:12333   */\n      div\n        /* \"#utility.yul\":12300:12333   */\n      swap1\n      pop\n        /* \"#utility.yul\":12246:12339   */\n      swap2\n      swap1\n      pop\n      jump\t// out\n        /* \"#utility.yul\":12345:12452   */\n    tag_148:\n        /* \"#utility.yul\":12389:12397   */\n      0x00\n        /* \"#utility.yul\":12439:12444   */\n      dup3\n        /* \"#utility.yul\":12433:12437   */\n      dup3\n        /* \"#utility.yul\":12429:12445   */\n      shl\n        /* \"#utility.yul\":12408:12445   */\n      swap1\n      pop\n        /* \"#utility.yul\":12345:12452   */\n      swap3\n      swap2\n      pop\n      pop\n      jump\t// out\n        /* \"#utility.yul\":12458:12851   */\n    tag_149:\n        /* \"#utility.yul\":12527:12533   */\n      0x00\n        /* \"#utility.yul\":12577:12578   */\n      0x08\n        /* \"#utility.yul\":12565:12575   */\n      dup4\n        /* \"#utility.yul\":12561:12579   */\n      mul\n        /* \"#utility.yul\":12600:12697   */\n      tag_281\n        /* \"#utility.yul\":12630:12696   */\n      0xffffffffffffffffffffffffffffffffffffffffffffffffffffffffffffffff\n        /* \"#utility.yul\":12619:12628   */\n      dup3\n        /* \"#utility.yul\":12600:12697   */\n      tag_148\n      jump\t// in\n    tag_281:\n        /* \"#utility.yul\":12718:12757   */\n      tag_282\n        /* \"#utility.yul\":12748:12756   */\n      dup7\n        /* \"#utility.yul\":12737:12746   */\n      dup4\n        /* \"#utility.yul\":12718:12757   */\n      tag_148\n      jump\t// in\n    tag_282:\n        /* \"#utility.yul\":12706:12757   */\n      swap6\n      pop\n        /* \"#utility.yul\":12790:12794   */\n      dup1\n        /* \"#utility.yul\":12786:12795   */\n      not\n        /* \"#utility.yul\":12779:12784   */\n      dup5\n        /* \"#utility.yul\":12775:12796   */\n      and\n        /* \"#utility.yul\":12766:12796   */\n      swap4\n      pop\n        /* \"#utility.yul\":12839:12843   */\n      dup1\n        /* \"#utility.yul\":12829:12837   */\n      dup7\n        /* \"#utility.yul\":12825:12844   */\n      and\n        /* \"#utility.yul\":12818:12823   */\n      dup5\n        /* \"#utility.yul\":12815:12845   */\n      or\n        /* \"#utility.yul\":12805:12845   */\n      swap3\n      pop\n        /* \"#utility.yul\":12534:12851   */\n      pop\n      pop\n        /* \"#utility.yul\":12458:12851   */\n      swap4\n      swap3\n      pop\n      pop\n      pop\n      jump\t// out\n        /* \"#utility.yul\":12857:12917   */\n    tag_150:\n        /* \"#utility.yul\":12885:12888   */\n      0x00\n        /* \"#utility.yul\":12906:12911   */\n      dup2\n        /* \"#utility.yul\":12899:12911   */\n      swap1\n      pop\n        /* \"#utility.yul\":12857:12917   */\n      swap2\n      swap1\n      pop\n      jump\t// out\n        /* \"#utility.yul\":12923:13065   */\n    tag_151:\n        /* \"#utility.yul\":12973:12982   */\n      0x00\n        /* \"#utility.yul\":13006:13059   */\n      tag_285\n        /* \"#utility.yul\":13024:13058   */\n      tag_286\n        /* \"#utility.yul\":13033:13057   */\n      tag_287\n        /* \"#utility.yul\":13051:13056   */\n      dup5\n        /* \"#utility.yul\":13033:13057   */\n      tag_116\n      jump\t// in\n    tag_287:\n        /* \"#utility.yul\":13024:13058   */\n      tag_150\n      jump\t// in\n    tag_286:\n        /* \"#utility.yul\":13006:13059   */\n      tag_116\n      jump\t// in\n    tag_285:\n        /* \"#utility.yul\":12993:13059   */\n      swap1\n      pop\n        /* \"#utility.yul\":12923:13065   */\n      swap2\n      swap1\n      pop\n      jump\t// out\n        /* \"#utility.yul\":13071:13146   */\n    tag_152:\n        /* \"#utility.yul\":13114:13117   */\n      0x00\n        /* \"#utility.yul\":13135:13140   */\n      dup2\n        /* \"#utility.yul\":13128:13140   */\n      swap1\n      pop\n        /* \"#utility.yul\":13071:13146   */\n      swap2\n      swap1\n      pop\n      jump\t// out\n        /* \"#utility.yul\":13152:13421   */\n    tag_153:\n        /* \"#utility.yul\":13262:13301   */\n      tag_290\n        /* \"#utility.yul\":13293:13300   */\n      dup4\n        /* \"#utility.yul\":13262:13301   */\n      tag_151\n      jump\t// in\n    tag_290:\n        /* \"#utility.yul\":13323:13414   */\n      tag_291\n        /* \"#utility.yul\":13372:13413   */\n      tag_292\n        /* \"#utility.yul\":13396:13412   */\n      dup3\n        /* \"#utility.yul\":13372:13413   */\n      tag_152\n      jump\t// in\n    tag_292:\n        /* \"#utility.yul\":13364:13370   */\n      dup5\n        /* \"#utility.yul\":13357:13361   */\n      dup5\n        /* \"#utility.yul\":13351:13362   */\n      sload\n        /* \"#utility.yul\":13323:13414   */\n      tag_149\n      jump\t// in\n    tag_291:\n        /* \"#utility.yul\":13317:13321   */\n      dup3\n        /* \"#utility.yul\":13310:13415   */\n      sstore\n        /* \"#utility.yul\":13228:13421   */\n      pop\n        /* \"#utility.yul\":13152:13421   */\n      pop\n      pop\n      pop\n      jump\t// out\n        /* \"#utility.yul\":13427:13500   */\n    tag_154:\n        /* \"#utility.yul\":13472:13475   */\n      0x00\n        /* \"#utility.yul\":13427:13500   */\n      swap1\n      jump\t// out\n        /* \"#utility.yul\":13506:13695   */\n    tag_155:\n        /* \"#utility.yul\":13583:13615   */\n      tag_295\n      tag_154\n      jump\t// in\n    tag_295:\n        /* \"#utility.yul\":13624:13689   */\n      tag_296\n        /* \"#utility.yul\":13682:13688   */\n      dup2\n        /* \"#utility.yul\":13674:13680   */\n      dup5\n        /* \"#utility.yul\":13668:13672   */\n      dup5\n        /* \"#utility.yul\":13624:13689   */\n      tag_153\n      jump\t// in\n    tag_296:\n        /* \"#utility.yul\":13559:13695   */\n      pop\n        /* \"#utility.yul\":13506:13695   */\n      pop\n      pop\n      jump\t// out\n        /* \"#utility.yul\":13701:13887   */\n    tag_156:\n        /* \"#utility.yul\":13761:13881   */\n    tag_298:\n        /* \"#utility.yul\":13778:13781   */\n      dup2\n        /* \"#utility.yul\":13771:13776   */\n      dup2\n        /* \"#utility.yul\":13768:13782   */\n      lt\n        /* \"#utility.yul\":13761:13881   */\n      iszero\n      tag_300\n      jumpi\n        /* \"#utility.yul\":13832:13871   */\n      tag_301\n        /* \"#utility.yul\":13869:13870   */\n      0x00\n        /* \"#utility.yul\":13862:13867   */\n      dup3\n        /* \"#utility.yul\":13832:13871   */\n      tag_155\n      jump\t// in\n    tag_301:\n        /* \"#utility.yul\":13805:13806   */\n      0x01\n        /* \"#utility.yul\":13798:13803   */\n      dup2\n        /* \"#utility.yul\":13794:13807   */\n      add\n        /* \"#utility.yul\":13785:13807   */\n      swap1\n      pop\n        /* \"#utility.yul\":13761:13881   */\n      jump(tag_298)\n    tag_300:\n        /* \"#utility.yul\":13701:13887   */\n      pop\n      pop\n      jump\t// out\n        /* \"#utility.yul\":13893:14436   */\n    tag_157:\n        /* \"#utility.yul\":13994:13996   */\n      0x1f\n        /* \"#utility.yul\":13989:13992   */\n      dup3\n        /* \"#utility.yul\":13986:13997   */\n      gt\n        /* \"#utility.yul\":13983:14429   */\n      iszero\n      tag_303\n      jumpi\n        /* \"#utility.yul\":14028:14066   */\n      tag_304\n        /* \"#utility.yul\":14060:14065   */\n      dup2\n        /* \"#utility.yul\":14028:14066   */\n      tag_146\n      jump\t// in\n    tag_304:\n        /* \"#utility.yul\":14112:14141   */\n      tag_305\n        /* \"#utility.yul\":14130:14140   */\n      dup5\n        /* \"#utility.yul\":14112:14141   */\n      tag_147\n      jump\t// in\n    tag_305:\n        /* \"#utility.yul\":14102:14110   */\n      dup2\n        /* \"#utility.yul\":14098:14142   */\n      add\n        /* \"#utility.yul\":14295:14297   */\n      0x20\n        /* \"#utility.yul\":14283:14293   */\n      dup6\n        /* \"#utility.yul\":14280:14298   */\n      lt\n        /* \"#utility.yul\":14277:14326   */\n      iszero\n      tag_306\n      jumpi\n        /* \"#utility.yul\":14316:14324   */\n      dup2\n        /* \"#utility.yul\":14301:14324   */\n      swap1\n      pop\n        /* \"#utility.yul\":14277:14326   */\n    tag_306:\n        /* \"#utility.yul\":14339:14419   */\n      tag_307\n        /* \"#utility.yul\":14395:14417   */\n      tag_308\n        /* \"#utility.yul\":14413:14416   */\n      dup6\n        /* \"#utility.yul\":14395:14417   */\n      tag_147\n      jump\t// in\n    tag_308:\n        /* \"#utility.yul\":14385:14393   */\n      dup4\n        /* \"#utility.yul\":14381:14418   */\n      add\n        /* \"#utility.yul\":14368:14379   */\n      dup3\n        /* \"#utility.yul\":14339:14419   */\n      tag_156\n      jump\t// in\n    tag_307:\n        /* \"#utility.yul\":13998:14429   */\n      pop\n      pop\n        /* \"#utility.yul\":13983:14429   */\n    tag_303:\n        /* \"#utility.yul\":13893:14436   */\n      pop\n      pop\n      pop\n      jump\t// out\n        /* \"#utility.yul\":14442:14559   */\n    tag_158:\n        /* \"#utility.yul\":14496:14504   */\n      0x00\n        /* \"#utility.yul\":14546:14551   */\n      dup3\n        /* \"#utility.yul\":14540:14544   */\n      dup3\n        /* \"#utility.yul\":14536:14552   */\n      shr\n        /* \"#utility.yul\":14515:14552   */\n      swap1\n      pop\n        /* \"#utility.yul\":14442:14559   */\n      swap3\n      swap2\n      pop\n      pop\n      jump\t// out\n        /* \"#utility.yul\":14565:14734   */\n    tag_159:\n        /* \"#utility.yul\":14609:14615   */\n      0x00\n        /* \"#utility.yul\":14642:14693   */\n      tag_311\n        /* \"#utility.yul\":14690:14691   */\n      0x00\n        /* \"#utility.yul\":14686:14692   */\n      not\n        /* \"#utility.yul\":14678:14683   */\n      dup5\n        /* \"#utility.yul\":14675:14676   */\n      0x08\n        /* \"#utility.yul\":14671:14684   */\n      mul\n        /* \"#utility.yul\":14642:14693   */\n      tag_158\n      jump\t// in\n    tag_311:\n        /* \"#utility.yul\":14638:14694   */\n      not\n        /* \"#utility.yul\":14723:14727   */\n      dup1\n        /* \"#utility.yul\":14717:14721   */\n      dup4\n        /* \"#utility.yul\":14713:14728   */\n      and\n        /* \"#utility.yul\":14703:14728   */\n      swap2\n      pop\n        /* \"#utility.yul\":14616:14734   */\n      pop\n        /* \"#utility.yul\":14565:14734   */\n      swap3\n      swap2\n      pop\n      pop\n      jump\t// out\n        /* \"#utility.yul\":14739:15034   */\n    tag_160:\n        /* \"#utility.yul\":14815:14819   */\n      0x00\n        /* \"#utility.yul\":14961:14990   */\n      tag_313\n        /* \"#utility.yul\":14986:14989   */\n      dup4\n        /* \"#utility.yul\":14980:14984   */\n      dup4\n        /* \"#utility.yul\":14961:14990   */\n      tag_159\n      jump\t// in\n    tag_313:\n        /* \"#utility.yul\":14953:14990   */\n      swap2\n      pop\n        /* \"#utility.yul\":15023:15026   */\n      dup3\n        /* \"#utility.yul\":15020:15021   */\n      0x02\n        /* \"#utility.yul\":15016:15027   */\n      mul\n        /* \"#utility.yul\":15010:15014   */\n      dup3\n        /* \"#utility.yul\":15007:15028   */\n      or\n        /* \"#utility.yul\":14999:15028   */\n      swap1\n      pop\n        /* \"#utility.yul\":14739:15034   */\n      swap3\n      swap2\n      pop\n      pop\n      jump\t// out\n        /* \"#utility.yul\":15039:16434   */\n    tag_100:\n        /* \"#utility.yul\":15156:15193   */\n      tag_315\n        /* \"#utility.yul\":15189:15192   */\n      dup3\n        /* \"#utility.yul\":15156:15193   */\n      tag_122\n      jump\t// in\n    tag_315:\n        /* \"#utility.yul\":15258:15276   */\n      0xffffffffffffffff\n        /* \"#utility.yul\":15250:15256   */\n      dup2\n        /* \"#utility.yul\":15247:15277   */\n      gt\n        /* \"#utility.yul\":15244:15300   */\n      iszero\n      tag_316\n      jumpi\n        /* \"#utility.yul\":15280:15298   */\n      tag_317\n      tag_145\n      jump\t// in\n    tag_317:\n        /* \"#utility.yul\":15244:15300   */\n    tag_316:\n        /* \"#utility.yul\":15324:15362   */\n      tag_318\n        /* \"#utility.yul\":15356:15360   */\n      dup3\n        /* \"#utility.yul\":15350:15361   */\n      sload\n        /* \"#utility.yul\":15324:15362   */\n      tag_37\n      jump\t// in\n    tag_318:\n        /* \"#utility.yul\":15409:15476   */\n      tag_319\n        /* \"#utility.yul\":15469:15475   */\n      dup3\n        /* \"#utility.yul\":15461:15467   */\n      dup3\n        /* \"#utility.yul\":15455:15459   */\n      dup6\n        /* \"#utility.yul\":15409:15476   */\n      tag_157\n      jump\t// in\n    tag_319:\n        /* \"#utility.yul\":15503:15504   */\n      0x00\n        /* \"#utility.yul\":15527:15531   */\n      0x20\n        /* \"#utility.yul\":15514:15531   */\n      swap1\n      pop\n        /* \"#utility.yul\":15559:15561   */\n      0x1f\n        /* \"#utility.yul\":15551:15557   */\n      dup4\n        /* \"#utility.yul\":15548:15562   */\n      gt\n        /* \"#utility.yul\":15576:15577   */\n      0x01\n        /* \"#utility.yul\":15571:16189   */\n      dup2\n      eq\n      tag_321\n      jumpi\n        /* \"#utility.yul\":16233:16234   */\n      0x00\n        /* \"#utility.yul\":16250:16256   */\n      dup5\n        /* \"#utility.yul\":16247:16324   */\n      iszero\n      tag_322\n      jumpi\n        /* \"#utility.yul\":16299:16308   */\n      dup3\n        /* \"#utility.yul\":16294:16297   */\n      dup8\n        /* \"#utility.yul\":16290:16309   */\n      add\n        /* \"#utility.yul\":16284:16310   */\n      mload\n        /* \"#utility.yul\":16275:16310   */\n      swap1\n      pop\n        /* \"#utility.yul\":16247:16324   */\n    tag_322:\n        /* \"#utility.yul\":16350:16417   */\n      tag_323\n        /* \"#utility.yul\":16410:16416   */\n      dup6\n        /* \"#utility.yul\":16403:16408   */\n      dup3\n        /* \"#utility.yul\":16350:16417   */\n      tag_160\n      jump\t// in\n    tag_323:\n        /* \"#utility.yul\":16344:16348   */\n      dup7\n        /* \"#utility.yul\":16337:16418   */\n      sstore\n        /* \"#utility.yul\":16206:16428   */\n      pop\n        /* \"#utility.yul\":15541:16428   */\n      jump(tag_320)\n        /* \"#utility.yul\":15571:16189   */\n    tag_321:\n        /* \"#utility.yul\":15623:15627   */\n      0x1f\n        /* \"#utility.yul\":15619:15628   */\n      not\n        /* \"#utility.yul\":15611:15617   */\n      dup5\n        /* \"#utility.yul\":15607:15629   */\n      and\n        /* \"#utility.yul\":15657:15694   */\n      tag_324\n        /* \"#utility.yul\":15689:15693   */\n      dup7\n        /* \"#utility.yul\":15657:15694   */\n      tag_146\n      jump\t// in\n    tag_324:\n        /* \"#utility.yul\":15716:15717   */\n      0x00\n        /* \"#utility.yul\":15730:15938   */\n    tag_325:\n        /* \"#utility.yul\":15744:15751   */\n      dup3\n        /* \"#utility.yul\":15741:15742   */\n      dup2\n        /* \"#utility.yul\":15738:15752   */\n      lt\n        /* \"#utility.yul\":15730:15938   */\n      iszero\n      tag_327\n      jumpi\n        /* \"#utility.yul\":15823:15832   */\n      dup5\n        /* \"#utility.yul\":15818:15821   */\n      dup10\n        /* \"#utility.yul\":15814:15833   */\n      add\n        /* \"#utility.yul\":15808:15834   */\n      mload\n        /* \"#utility.yul\":15800:15806   */\n      dup3\n        /* \"#utility.yul\":15793:15835   */\n      sstore\n        /* \"#utility.yul\":15874:15875   */\n      0x01\n        /* \"#utility.yul\":15866:15872   */\n      dup3\n        /* \"#utility.yul\":15862:15876   */\n      add\n        /* \"#utility.yul\":15852:15876   */\n      swap2\n      pop\n        /* \"#utility.yul\":15921:15923   */\n      0x20\n        /* \"#utility.yul\":15910:15919   */\n      dup6\n        /* \"#utility.yul\":15906:15924   */\n      add\n        /* \"#utility.yul\":15893:15924   */\n      swap5\n      pop\n        /* \"#utility.yul\":15767:15771   */\n      0x20\n        /* \"#utility.yul\":15764:15765   */\n      dup2\n        /* \"#utility.yul\":15760:15772   */\n      add\n        /* \"#utility.yul\":15755:15772   */\n      swap1\n      pop\n        /* \"#utility.yul\":15730:15938   */\n      jump(tag_325)\n    tag_327:\n        /* \"#utility.yul\":15966:15972   */\n      dup7\n        /* \"#utility.yul\":15957:15964   */\n      dup4\n        /* \"#utility.yul\":15954:15973   */\n      lt\n        /* \"#utility.yul\":15951:16130   */\n      iszero\n      tag_328\n      jumpi\n        /* \"#utility.yul\":16024:16033   */\n      dup5\n        /* \"#utility.yul\":16019:16022   */\n      dup10\n        /* \"#utility.yul\":16015:16034   */\n      add\n        /* \"#utility.yul\":16009:16035   */\n      mload\n        /* \"#utility.yul\":16067:16115   */\n      tag_329\n        /* \"#utility.yul\":16109:16113   */\n      0x1f\n        /* \"#utility.yul\":16101:16107   */\n      dup10\n        /* \"#utility.yul\":16097:16114   */\n      and\n        /* \"#utility.yul\":16086:16095   */\n      dup3\n        /* \"#utility.yul\":16067:16115   */\n      tag_159\n      jump\t// in\n    tag_329:\n        /* \"#utility.yul\":16059:16065   */\n      dup4\n        /* \"#utility.yul\":16052:16116   */\n      sstore\n        /* \"#utility.yul\":15974:16130   */\n      pop\n        /* \"#utility.yul\":15951:16130   */\n    tag_328:\n        /* \"#utility.yul\":16176:16177   */\n      0x01\n        /* \"#utility.yul\":16172:16173   */\n      0x02\n        /* \"#utility.yul\":16164:16170   */\n      dup9\n        /* \"#utility.yul\":16160:16174   */\n      mul\n        /* \"#utility.yul\":16156:16178   */\n      add\n        /* \"#utility.yul\":16150:16154   */\n      dup9\n        /* \"#utility.yul\":16143:16179   */\n      sstore\n        /* \"#utility.yul\":15578:16189   */\n      pop\n      pop\n      pop\n        /* \"#utility.yul\":15541:16428   */\n    tag_320:\n      pop\n        /* \"#utility.yul\":15131:16434   */\n      pop\n      pop\n      pop\n        /* \"#utility.yul\":15039:16434   */\n      pop\n      pop\n      jump\t// out\n        /* \"#utility.yul\":16440:16661   */\n    tag_161:\n        /* \"#utility.yul\":16580:16614   */\n      0x596f75206d7573742073656e64206120646f6e6174696f6e2076616c7565203e\n        /* \"#utility.yul\":16576:16577   */\n      0x00\n        /* \"#utility.yul\":16568:16574   */\n      dup3\n        /* \"#utility.yul\":16564:16578   */\n      add\n        /* \"#utility.yul\":16557:16615   */\n      mstore\n        /* \"#utility.yul\":16649:16653   */\n      0x2030000000000000000000000000000000000000000000000000000000000000\n        /* \"#utility.yul\":16644:16646   */\n      0x20\n        /* \"#utility.yul\":16636:16642   */\n      dup3\n        /* \"#utility.yul\":16632:16647   */\n      add\n        /* \"#utility.yul\":16625:16654   */\n      mstore\n        /* \"#utility.yul\":16440:16661   */\n      pop\n      jump\t// out\n        /* \"#utility.yul\":16667:17033   */\n    tag_162:\n        /* \"#utility.yul\":16809:16812   */\n      0x00\n        /* \"#utility.yul\":16830:16897   */\n      tag_332\n        /* \"#utility.yul\":16894:16896   */\n      0x22\n        /* \"#utility.yul\":16889:16892   */\n      dup4\n        /* \"#utility.yul\":16830:16897   */\n      tag_123\n      jump\t// in\n    tag_332:\n        /* \"#utility.yul\":16823:16897   */\n      swap2\n      pop\n        /* \"#utility.yul\":16906:16999   */\n      tag_333\n        /* \"#utility.yul\":16995:16998   */\n      dup3\n        /* \"#utility.yul\":16906:16999   */\n      tag_161\n      jump\t// in\n    tag_333:\n        /* \"#utility.yul\":17024:17026   */\n      0x40\n        /* \"#utility.yul\":17019:17022   */\n      dup3\n        /* \"#utility.yul\":17015:17027   */\n      add\n        /* \"#utility.yul\":17008:17027   */\n      swap1\n      pop\n        /* \"#utility.yul\":16667:17033   */\n      swap2\n      swap1\n      pop\n      jump\t// out\n        /* \"#utility.yul\":17039:17458   */\n    tag_107:\n        /* \"#utility.yul\":17205:17209   */\n      0x00\n        /* \"#utility.yul\":17243:17245   */\n      0x20\n        /* \"#utility.yul\":17232:17241   */\n      dup3\n        /* \"#utility.yul\":17228:17246   */\n      add\n        /* \"#utility.yul\":17220:17246   */\n      swap1\n      pop\n        /* \"#utility.yul\":17292:17301   */\n      dup2\n        /* \"#utility.yul\":17286:17290   */\n      dup2\n        /* \"#utility.yul\":17282:17302   */\n      sub\n        /* \"#utility.yul\":17278:17279   */\n      0x00\n        /* \"#utility.yul\":17267:17276   */\n      dup4\n        /* \"#utility.yul\":17263:17280   */\n      add\n        /* \"#utility.yul\":17256:17303   */\n      mstore\n        /* \"#utility.yul\":17320:17451   */\n      tag_335\n        /* \"#utility.yul\":17446:17450   */\n      dup2\n        /* \"#utility.yul\":17320:17451   */\n      tag_162\n      jump\t// in\n    tag_335:\n        /* \"#utility.yul\":17312:17451   */\n      swap1\n      pop\n        /* \"#utility.yul\":17039:17458   */\n      swap2\n      swap1\n      pop\n      jump\t// out\n        /* \"#utility.yul\":17464:17644   */\n    tag_163:\n        /* \"#utility.yul\":17604:17636   */\n      0x43616e6e6f7420646f6e61746520746f20746869732063616d706169676e0000\n        /* \"#utility.yul\":17600:17601   */\n      0x00\n        /* \"#utility.yul\":17592:17598   */\n      dup3\n        /* \"#utility.yul\":17588:17602   */\n      add\n        /* \"#utility.yul\":17581:17637   */\n      mstore\n        /* \"#utility.yul\":17464:17644   */\n      pop\n      jump\t// out\n        /* \"#utility.yul\":17650:18016   */\n    tag_164:\n        /* \"#utility.yul\":17792:17795   */\n      0x00\n        /* \"#utility.yul\":17813:17880   */\n      tag_338\n        /* \"#utility.yul\":17877:17879   */\n      0x1e\n        /* \"#utility.yul\":17872:17875   */\n      dup4\n        /* \"#utility.yul\":17813:17880   */\n      tag_123\n      jump\t// in\n    tag_338:\n        /* \"#utility.yul\":17806:17880   */\n      swap2\n      pop\n        /* \"#utility.yul\":17889:17982   */\n      tag_339\n        /* \"#utility.yul\":17978:17981   */\n      dup3\n        /* \"#utility.yul\":17889:17982   */\n      tag_163\n      jump\t// in\n    tag_339:\n        /* \"#utility.yul\":18007:18009   */\n      0x20\n        /* \"#utility.yul\":18002:18005   */\n      dup3\n        /* \"#utility.yul\":17998:18010   */\n      add\n        /* \"#utility.yul\":17991:18010   */\n      swap1\n      pop\n        /* \"#utility.yul\":17650:18016   */\n      swap2\n      swap1\n      pop\n      jump\t// out\n        /* \"#utility.yul\":18022:18441   */\n    tag_110:\n        /* \"#utility.yul\":18188:18192   */\n      0x00\n        /* \"#utility.yul\":18226:18228   */\n      0x20\n        /* \"#utility.yul\":18215:18224   */\n      dup3\n        /* \"#utility.yul\":18211:18229   */\n      add\n        /* \"#utility.yul\":18203:18229   */\n      swap1\n      pop\n        /* \"#utility.yul\":18275:18284   */\n      dup2\n        /* \"#utility.yul\":18269:18273   */\n      dup2\n        /* \"#utility.yul\":18265:18285   */\n      sub\n        /* \"#utility.yul\":18261:18262   */\n      0x00\n        /* \"#utility.yul\":18250:18259   */\n      dup4\n        /* \"#utility.yul\":18246:18263   */\n      add\n        /* \"#utility.yul\":18239:18286   */\n      mstore\n        /* \"#utility.yul\":18303:18434   */\n      tag_341\n        /* \"#utility.yul\":18429:18433   */\n      dup2\n        /* \"#utility.yul\":18303:18434   */\n      tag_164\n      jump\t// in\n    tag_341:\n        /* \"#utility.yul\":18295:18434   */\n      swap1\n      pop\n        /* \"#utility.yul\":18022:18441   */\n      swap2\n      swap1\n      pop\n      jump\t// out\n        /* \"#utility.yul\":18447:18638   */\n    tag_112:\n        /* \"#utility.yul\":18487:18490   */\n      0x00\n        /* \"#utility.yul\":18506:18526   */\n      tag_343\n        /* \"#utility.yul\":18524:18525   */\n      dup3\n        /* \"#utility.yul\":18506:18526   */\n      tag_116\n      jump\t// in\n    tag_343:\n        /* \"#utility.yul\":18501:18526   */\n      swap2\n      pop\n        /* \"#utility.yul\":18540:18560   */\n      tag_344\n        /* \"#utility.yul\":18558:18559   */\n      dup4\n        /* \"#utility.yul\":18540:18560   */\n      tag_116\n      jump\t// in\n    tag_344:\n        /* \"#utility.yul\":18535:18560   */\n      swap3\n      pop\n        /* \"#utility.yul\":18583:18584   */\n      dup3\n        /* \"#utility.yul\":18580:18581   */\n      dup3\n        /* \"#utility.yul\":18576:18585   */\n      add\n        /* \"#utility.yul\":18569:18585   */\n      swap1\n      pop\n        /* \"#utility.yul\":18604:18607   */\n      dup1\n        /* \"#utility.yul\":18601:18602   */\n      dup3\n        /* \"#utility.yul\":18598:18608   */\n      gt\n        /* \"#utility.yul\":18595:18631   */\n      iszero\n      tag_345\n      jumpi\n        /* \"#utility.yul\":18611:18629   */\n      tag_346\n      tag_141\n      jump\t// in\n    tag_346:\n        /* \"#utility.yul\":18595:18631   */\n    tag_345:\n        /* \"#utility.yul\":18447:18638   */\n      swap3\n      swap2\n      pop\n      pop\n      jump\t// out\n\n    auxdata: 0xa26469706673582212205eda785a7851a482cdcd17d122db52cf5fad822f4cc0412efc1bb10f6155ee4564736f6c63430008120033\n}\n",
				"bytecode": {
					"linkReferences": {},
					"object": "60806040526064600055600060015534801561001a57600080fd5b506116618061002a6000396000f3fe6080604052600436106100555760003560e01c8063141961bc1461005a5780632e1a7d4d1461009d57806361b8ce8c146100c6578063ddca3f43146100f1578063ec6714861461011c578063f14faf6f14610145575b600080fd5b34801561006657600080fd5b50610081600480360381019061007c9190610c75565b610161565b6040516100949796959493929190610d9d565b60405180910390f35b3480156100a957600080fd5b506100c460048036038101906100bf9190610c75565b6103f0565b005b3480156100d257600080fd5b506100db61086d565b6040516100e89190610e28565b60405180910390f35b3480156100fd57600080fd5b50610106610873565b6040516101139190610e28565b60405180910390f35b34801561012857600080fd5b50610143600480360381019061013e9190610ea8565b610879565b005b61015f600480360381019061015a9190610c75565b610b03565b005b60026020528060005260406000206000915090508060000160009054906101000a900473ffffffffffffffffffffffffffffffffffffffff16908060010180546101aa90610fc0565b80601f01602080910402602001604051908101604052809291908181526020018280546101d690610fc0565b80156102235780601f106101f857610100808354040283529160200191610223565b820191906000526020600020905b81548152906001019060200180831161020657829003601f168201915b50505050509080600201805461023890610fc0565b80601f016020809104026020016040519081016040528092919081815260200182805461026490610fc0565b80156102b15780601f10610286576101008083540402835291602001916102b1565b820191906000526020600020905b81548152906001019060200180831161029457829003601f168201915b5050505050908060030180546102c690610fc0565b80601f01602080910402602001604051908101604052809291908181526020018280546102f290610fc0565b801561033f5780601f106103145761010080835404028352916020019161033f565b820191906000526020600020905b81548152906001019060200180831161032257829003601f168201915b50505050509080600401805461035490610fc0565b80601f016020809104026020016040519081016040528092919081815260200182805461038090610fc0565b80156103cd5780601f106103a2576101008083540402835291602001916103cd565b820191906000526020600020905b8154815290600101906020018083116103b057829003601f168201915b5050505050908060050154908060060160009054906101000a900460ff16905087565b6000600260008381526020019081526020016000206040518060e00160405290816000820160009054906101000a900473ffffffffffffffffffffffffffffffffffffffff1673ffffffffffffffffffffffffffffffffffffffff1673ffffffffffffffffffffffffffffffffffffffff16815260200160018201805461047690610fc0565b80601f01602080910402602001604051908101604052809291908181526020018280546104a290610fc0565b80156104ef5780601f106104c4576101008083540402835291602001916104ef565b820191906000526020600020905b8154815290600101906020018083116104d257829003601f168201915b5050505050815260200160028201805461050890610fc0565b80601f016020809104026020016040519081016040528092919081815260200182805461053490610fc0565b80156105815780601f1061055657610100808354040283529160200191610581565b820191906000526020600020905b81548152906001019060200180831161056457829003601f168201915b5050505050815260200160038201805461059a90610fc0565b80601f01602080910402602001604051908101604052809291908181526020018280546105c690610fc0565b80156106135780601f106105e857610100808354040283529160200191610613565b820191906000526020600020905b8154815290600101906020018083116105f657829003601f168201915b5050505050815260200160048201805461062c90610fc0565b80601f016020809104026020016040519081016040528092919081815260200182805461065890610fc0565b80156106a55780601f1061067a576101008083540402835291602001916106a5565b820191906000526020600020905b81548152906001019060200180831161068857829003601f168201915b50505050508152602001600582015481526020016006820160009054906101000a900460ff16151515158152505090503373ffffffffffffffffffffffffffffffffffffffff16816000015173ffffffffffffffffffffffffffffffffffffffff1614610747576040517f08c379a000000000000000000000000000000000000000000000000000000000815260040161073e9061103d565b60405180910390fd5b600115158160c00151151514610792576040517f08c379a0000000000000000000000000000000000000000000000000000000008152600401610789906110a9565b60405180910390fd5b6000548160a00151116107da576040517f08c379a00000000000000000000000000000000000000000000000000000000081526004016107d19061113b565b60405180910390fd5b6000816000015190508073ffffffffffffffffffffffffffffffffffffffff166000548360a0015161080c919061118a565b604051610818906111ef565b60006040518083038185875af1925050503d8060008114610855576040519150601f19603f3d011682016040523d82523d6000602084013e61085a565b606091505b505050600015158260c001515050505050565b60015481565b60005481565b610881610be0565b88888080601f016020809104026020016040519081016040528093929190818152602001838380828437600081840152601f19601f82011690508083019250505050505050816020018190525086868080601f016020809104026020016040519081016040528093929190818152602001838380828437600081840152601f19601f82011690508083019250505050505050816040018190525084848080601f016020809104026020016040519081016040528093929190818152602001838380828437600081840152601f19601f82011690508083019250505050505050816060018190525082828080601f016020809104026020016040519081016040528093929190818152602001838380828437600081840152601f19601f82011690508083019250505050505050816080018190525060018160c001901515908115158152505033816000019073ffffffffffffffffffffffffffffffffffffffff16908173ffffffffffffffffffffffffffffffffffffffff168152505060016000815480929190610a1190611204565b91905055508060026000600154815260200190815260200160002060008201518160000160006101000a81548173ffffffffffffffffffffffffffffffffffffffff021916908373ffffffffffffffffffffffffffffffffffffffff1602179055506020820151816001019081610a889190611427565b506040820151816002019081610a9e9190611427565b506060820151816003019081610ab49190611427565b506080820151816004019081610aca9190611427565b5060a0820151816005015560c08201518160060160006101000a81548160ff021916908315150217905550905050505050505050505050565b60003411610b46576040517f08c379a0000000000000000000000000000000000000000000000000000000008152600401610b3d9061156b565b60405180910390fd5b600115156002600083815260200190815260200160002060060160009054906101000a900460ff16151514610bb0576040517f08c379a0000000000000000000000000000000000000000000000000000000008152600401610ba7906115d7565b60405180910390fd5b34600260008381526020019081526020016000206005016000828254610bd691906115f7565b9250508190555050565b6040518060e00160405280600073ffffffffffffffffffffffffffffffffffffffff16815260200160608152602001606081526020016060815260200160608152602001600081526020016000151581525090565b600080fd5b600080fd5b6000819050919050565b610c5281610c3f565b8114610c5d57600080fd5b50565b600081359050610c6f81610c49565b92915050565b600060208284031215610c8b57610c8a610c35565b5b6000610c9984828501610c60565b91505092915050565b600073ffffffffffffffffffffffffffffffffffffffff82169050919050565b6000610ccd82610ca2565b9050919050565b610cdd81610cc2565b82525050565b600081519050919050565b600082825260208201905092915050565b60005b83811015610d1d578082015181840152602081019050610d02565b60008484015250505050565b6000601f19601f8301169050919050565b6000610d4582610ce3565b610d4f8185610cee565b9350610d5f818560208601610cff565b610d6881610d29565b840191505092915050565b610d7c81610c3f565b82525050565b60008115159050919050565b610d9781610d82565b82525050565b600060e082019050610db2600083018a610cd4565b8181036020830152610dc48189610d3a565b90508181036040830152610dd88188610d3a565b90508181036060830152610dec8187610d3a565b90508181036080830152610e008186610d3a565b9050610e0f60a0830185610d73565b610e1c60c0830184610d8e565b98975050505050505050565b6000602082019050610e3d6000830184610d73565b92915050565b600080fd5b600080fd5b600080fd5b60008083601f840112610e6857610e67610e43565b5b8235905067ffffffffffffffff811115610e8557610e84610e48565b5b602083019150836001820283011115610ea157610ea0610e4d565b5b9250929050565b6000806000806000806000806080898b031215610ec857610ec7610c35565b5b600089013567ffffffffffffffff811115610ee657610ee5610c3a565b5b610ef28b828c01610e52565b9850985050602089013567ffffffffffffffff811115610f1557610f14610c3a565b5b610f218b828c01610e52565b9650965050604089013567ffffffffffffffff811115610f4457610f43610c3a565b5b610f508b828c01610e52565b9450945050606089013567ffffffffffffffff811115610f7357610f72610c3a565b5b610f7f8b828c01610e52565b92509250509295985092959890939650565b7f4e487b7100000000000000000000000000000000000000000000000000000000600052602260045260246000fd5b60006002820490506001821680610fd857607f821691505b602082108103610feb57610fea610f91565b5b50919050565b7f596f7520646f206e6f742068617665207065726d697373696f6e000000000000600082015250565b6000611027601a83610cee565b915061103282610ff1565b602082019050919050565b600060208201905081810360008301526110568161101a565b9050919050565b7f546869732063616d706169676e20697320636c6f736564000000000000000000600082015250565b6000611093601783610cee565b915061109e8261105d565b602082019050919050565b600060208201905081810360008301526110c281611086565b9050919050565b7f546869732063616d706169676e20646f6573206e6f74206861766520656e6f7560008201527f6768742062616c616e6365000000000000000000000000000000000000000000602082015250565b6000611125602b83610cee565b9150611130826110c9565b604082019050919050565b6000602082019050818103600083015261115481611118565b9050919050565b7f4e487b7100000000000000000000000000000000000000000000000000000000600052601160045260246000fd5b600061119582610c3f565b91506111a083610c3f565b92508282039050818111156111b8576111b761115b565b5b92915050565b600081905092915050565b50565b60006111d96000836111be565b91506111e4826111c9565b600082019050919050565b60006111fa826111cc565b9150819050919050565b600061120f82610c3f565b91507fffffffffffffffffffffffffffffffffffffffffffffffffffffffffffffffff82036112415761124061115b565b5b600182019050919050565b7f4e487b7100000000000000000000000000000000000000000000000000000000600052604160045260246000fd5b60008190508160005260206000209050919050565b60006020601f8301049050919050565b600082821b905092915050565b6000600883026112dd7fffffffffffffffffffffffffffffffffffffffffffffffffffffffffffffffff826112a0565b6112e786836112a0565b95508019841693508086168417925050509392505050565b6000819050919050565b600061132461131f61131a84610c3f565b6112ff565b610c3f565b9050919050565b6000819050919050565b61133e83611309565b61135261134a8261132b565b8484546112ad565b825550505050565b600090565b61136761135a565b611372818484611335565b505050565b5b818110156113965761138b60008261135f565b600181019050611378565b5050565b601f8211156113db576113ac8161127b565b6113b584611290565b810160208510156113c4578190505b6113d86113d085611290565b830182611377565b50505b505050565b600082821c905092915050565b60006113fe600019846008026113e0565b1980831691505092915050565b600061141783836113ed565b9150826002028217905092915050565b61143082610ce3565b67ffffffffffffffff8111156114495761144861124c565b5b6114538254610fc0565b61145e82828561139a565b600060209050601f831160018114611491576000841561147f578287015190505b611489858261140b565b8655506114f1565b601f19841661149f8661127b565b60005b828110156114c7578489015182556001820191506020850194506020810190506114a2565b868310156114e457848901516114e0601f8916826113ed565b8355505b6001600288020188555050505b505050505050565b7f596f75206d7573742073656e64206120646f6e6174696f6e2076616c7565203e60008201527f2030000000000000000000000000000000000000000000000000000000000000602082015250565b6000611555602283610cee565b9150611560826114f9565b604082019050919050565b6000602082019050818103600083015261158481611548565b9050919050565b7f43616e6e6f7420646f6e61746520746f20746869732063616d706169676e0000600082015250565b60006115c1601e83610cee565b91506115cc8261158b565b602082019050919050565b600060208201905081810360008301526115f0816115b4565b9050919050565b600061160282610c3f565b915061160d83610c3f565b92508282019050808211156116255761162461115b565b5b9291505056fea26469706673582212205eda785a7851a482cdcd17d122db52cf5fad822f4cc0412efc1bb10f6155ee4564736f6c63430008120033",
					"opcodes": "PUSH1 0x80 PUSH1 0x40 MSTORE PUSH1 0x64 PUSH1 0x0 SSTORE PUSH1 0x0 PUSH1 0x1 SSTORE CALLVALUE DUP1 ISZERO PUSH2 0x1A JUMPI PUSH1 0x0 DUP1 REVERT JUMPDEST POP PUSH2 0x1661 DUP1 PUSH2 0x2A PUSH1 0x0 CODECOPY PUSH1 0x0 RETURN INVALID PUSH1 0x80 PUSH1 0x40 MSTORE PUSH1 0x4 CALLDATASIZE LT PUSH2 0x55 JUMPI PUSH1 0x0 CALLDATALOAD PUSH1 0xE0 SHR DUP1 PUSH4 0x141961BC EQ PUSH2 0x5A JUMPI DUP1 PUSH4 0x2E1A7D4D EQ PUSH2 0x9D JUMPI DUP1 PUSH4 0x61B8CE8C EQ PUSH2 0xC6 JUMPI DUP1 PUSH4 0xDDCA3F43 EQ PUSH2 0xF1 JUMPI DUP1 PUSH4 0xEC671486 EQ PUSH2 0x11C JUMPI DUP1 PUSH4 0xF14FAF6F EQ PUSH2 0x145 JUMPI JUMPDEST PUSH1 0x0 DUP1 REVERT JUMPDEST CALLVALUE DUP1 ISZERO PUSH2 0x66 JUMPI PUSH1 0x0 DUP1 REVERT JUMPDEST POP PUSH2 0x81 PUSH1 0x4 DUP1 CALLDATASIZE SUB DUP2 ADD SWAP1 PUSH2 0x7C SWAP2 SWAP1 PUSH2 0xC75 JUMP JUMPDEST PUSH2 0x161 JUMP JUMPDEST PUSH1 0x40 MLOAD PUSH2 0x94 SWAP8 SWAP7 SWAP6 SWAP5 SWAP4 SWAP3 SWAP2 SWAP1 PUSH2 0xD9D JUMP JUMPDEST PUSH1 0x40 MLOAD DUP1 SWAP2 SUB SWAP1 RETURN JUMPDEST CALLVALUE DUP1 ISZERO PUSH2 0xA9 JUMPI PUSH1 0x0 DUP1 REVERT JUMPDEST POP PUSH2 0xC4 PUSH1 0x4 DUP1 CALLDATASIZE SUB DUP2 ADD SWAP1 PUSH2 0xBF SWAP2 SWAP1 PUSH2 0xC75 JUMP JUMPDEST PUSH2 0x3F0 JUMP JUMPDEST STOP JUMPDEST CALLVALUE DUP1 ISZERO PUSH2 0xD2 JUMPI PUSH1 0x0 DUP1 REVERT JUMPDEST POP PUSH2 0xDB PUSH2 0x86D JUMP JUMPDEST PUSH1 0x40 MLOAD PUSH2 0xE8 SWAP2 SWAP1 PUSH2 0xE28 JUMP JUMPDEST PUSH1 0x40 MLOAD DUP1 SWAP2 SUB SWAP1 RETURN JUMPDEST CALLVALUE DUP1 ISZERO PUSH2 0xFD JUMPI PUSH1 0x0 DUP1 REVERT JUMPDEST POP PUSH2 0x106 PUSH2 0x873 JUMP JUMPDEST PUSH1 0x40 MLOAD PUSH2 0x113 SWAP2 SWAP1 PUSH2 0xE28 JUMP JUMPDEST PUSH1 0x40 MLOAD DUP1 SWAP2 SUB SWAP1 RETURN JUMPDEST CALLVALUE DUP1 ISZERO PUSH2 0x128 JUMPI PUSH1 0x0 DUP1 REVERT JUMPDEST POP PUSH2 0x143 PUSH1 0x4 DUP1 CALLDATASIZE SUB DUP2 ADD SWAP1 PUSH2 0x13E SWAP2 SWAP1 PUSH2 0xEA8 JUMP JUMPDEST PUSH2 0x879 JUMP JUMPDEST STOP JUMPDEST PUSH2 0x15F PUSH1 0x4 DUP1 CALLDATASIZE SUB DUP2 ADD SWAP1 PUSH2 0x15A SWAP2 SWAP1 PUSH2 0xC75 JUMP JUMPDEST PUSH2 0xB03 JUMP JUMPDEST STOP JUMPDEST PUSH1 0x2 PUSH1 0x20 MSTORE DUP1 PUSH1 0x0 MSTORE PUSH1 0x40 PUSH1 0x0 KECCAK256 PUSH1 0x0 SWAP2 POP SWAP1 POP DUP1 PUSH1 0x0 ADD PUSH1 0x0 SWAP1 SLOAD SWAP1 PUSH2 0x100 EXP SWAP1 DIV PUSH20 0xFFFFFFFFFFFFFFFFFFFFFFFFFFFFFFFFFFFFFFFF AND SWAP1 DUP1 PUSH1 0x1 ADD DUP1 SLOAD PUSH2 0x1AA SWAP1 PUSH2 0xFC0 JUMP JUMPDEST DUP1 PUSH1 0x1F ADD PUSH1 0x20 DUP1 SWAP2 DIV MUL PUSH1 0x20 ADD PUSH1 0x40 MLOAD SWAP1 DUP2 ADD PUSH1 0x40 MSTORE DUP1 SWAP3 SWAP2 SWAP1 DUP2 DUP2 MSTORE PUSH1 0x20 ADD DUP3 DUP1 SLOAD PUSH2 0x1D6 SWAP1 PUSH2 0xFC0 JUMP JUMPDEST DUP1 ISZERO PUSH2 0x223 JUMPI DUP1 PUSH1 0x1F LT PUSH2 0x1F8 JUMPI PUSH2 0x100 DUP1 DUP4 SLOAD DIV MUL DUP4 MSTORE SWAP2 PUSH1 0x20 ADD SWAP2 PUSH2 0x223 JUMP JUMPDEST DUP3 ADD SWAP2 SWAP1 PUSH1 0x0 MSTORE PUSH1 0x20 PUSH1 0x0 KECCAK256 SWAP1 JUMPDEST DUP2 SLOAD DUP2 MSTORE SWAP1 PUSH1 0x1 ADD SWAP1 PUSH1 0x20 ADD DUP1 DUP4 GT PUSH2 0x206 JUMPI DUP3 SWAP1 SUB PUSH1 0x1F AND DUP3 ADD SWAP2 JUMPDEST POP POP POP POP POP SWAP1 DUP1 PUSH1 0x2 ADD DUP1 SLOAD PUSH2 0x238 SWAP1 PUSH2 0xFC0 JUMP JUMPDEST DUP1 PUSH1 0x1F ADD PUSH1 0x20 DUP1 SWAP2 DIV MUL PUSH1 0x20 ADD PUSH1 0x40 MLOAD SWAP1 DUP2 ADD PUSH1 0x40 MSTORE DUP1 SWAP3 SWAP2 SWAP1 DUP2 DUP2 MSTORE PUSH1 0x20 ADD DUP3 DUP1 SLOAD PUSH2 0x264 SWAP1 PUSH2 0xFC0 JUMP JUMPDEST DUP1 ISZERO PUSH2 0x2B1 JUMPI DUP1 PUSH1 0x1F LT PUSH2 0x286 JUMPI PUSH2 0x100 DUP1 DUP4 SLOAD DIV MUL DUP4 MSTORE SWAP2 PUSH1 0x20 ADD SWAP2 PUSH2 0x2B1 JUMP JUMPDEST DUP3 ADD SWAP2 SWAP1 PUSH1 0x0 MSTORE PUSH1 0x20 PUSH1 0x0 KECCAK256 SWAP1 JUMPDEST DUP2 SLOAD DUP2 MSTORE SWAP1 PUSH1 0x1 ADD SWAP1 PUSH1 0x20 ADD DUP1 DUP4 GT PUSH2 0x294 JUMPI DUP3 SWAP1 SUB PUSH1 0x1F AND DUP3 ADD SWAP2 JUMPDEST POP POP POP POP POP SWAP1 DUP1 PUSH1 0x3 ADD DUP1 SLOAD PUSH2 0x2C6 SWAP1 PUSH2 0xFC0 JUMP JUMPDEST DUP1 PUSH1 0x1F ADD PUSH1 0x20 DUP1 SWAP2 DIV MUL PUSH1 0x20 ADD PUSH1 0x40 MLOAD SWAP1 DUP2 ADD PUSH1 0x40 MSTORE DUP1 SWAP3 SWAP2 SWAP1 DUP2 DUP2 MSTORE PUSH1 0x20 ADD DUP3 DUP1 SLOAD PUSH2 0x2F2 SWAP1 PUSH2 0xFC0 JUMP JUMPDEST DUP1 ISZERO PUSH2 0x33F JUMPI DUP1 PUSH1 0x1F LT PUSH2 0x314 JUMPI PUSH2 0x100 DUP1 DUP4 SLOAD DIV MUL DUP4 MSTORE SWAP2 PUSH1 0x20 ADD SWAP2 PUSH2 0x33F JUMP JUMPDEST DUP3 ADD SWAP2 SWAP1 PUSH1 0x0 MSTORE PUSH1 0x20 PUSH1 0x0 KECCAK256 SWAP1 JUMPDEST DUP2 SLOAD DUP2 MSTORE SWAP1 PUSH1 0x1 ADD SWAP1 PUSH1 0x20 ADD DUP1 DUP4 GT PUSH2 0x322 JUMPI DUP3 SWAP1 SUB PUSH1 0x1F AND DUP3 ADD SWAP2 JUMPDEST POP POP POP POP POP SWAP1 DUP1 PUSH1 0x4 ADD DUP1 SLOAD PUSH2 0x354 SWAP1 PUSH2 0xFC0 JUMP JUMPDEST DUP1 PUSH1 0x1F ADD PUSH1 0x20 DUP1 SWAP2 DIV MUL PUSH1 0x20 ADD PUSH1 0x40 MLOAD SWAP1 DUP2 ADD PUSH1 0x40 MSTORE DUP1 SWAP3 SWAP2 SWAP1 DUP2 DUP2 MSTORE PUSH1 0x20 ADD DUP3 DUP1 SLOAD PUSH2 0x380 SWAP1 PUSH2 0xFC0 JUMP JUMPDEST DUP1 ISZERO PUSH2 0x3CD JUMPI DUP1 PUSH1 0x1F LT PUSH2 0x3A2 JUMPI PUSH2 0x100 DUP1 DUP4 SLOAD DIV MUL DUP4 MSTORE SWAP2 PUSH1 0x20 ADD SWAP2 PUSH2 0x3CD JUMP JUMPDEST DUP3 ADD SWAP2 SWAP1 PUSH1 0x0 MSTORE PUSH1 0x20 PUSH1 0x0 KECCAK256 SWAP1 JUMPDEST DUP2 SLOAD DUP2 MSTORE SWAP1 PUSH1 0x1 ADD SWAP1 PUSH1 0x20 ADD DUP1 DUP4 GT PUSH2 0x3B0 JUMPI DUP3 SWAP1 SUB PUSH1 0x1F AND DUP3 ADD SWAP2 JUMPDEST POP POP POP POP POP SWAP1 DUP1 PUSH1 0x5 ADD SLOAD SWAP1 DUP1 PUSH1 0x6 ADD PUSH1 0x0 SWAP1 SLOAD SWAP1 PUSH2 0x100 EXP SWAP1 DIV PUSH1 0xFF AND SWAP1 POP DUP8 JUMP JUMPDEST PUSH1 0x0 PUSH1 0x2 PUSH1 0x0 DUP4 DUP2 MSTORE PUSH1 0x20 ADD SWAP1 DUP2 MSTORE PUSH1 0x20 ADD PUSH1 0x0 KECCAK256 PUSH1 0x40 MLOAD DUP1 PUSH1 0xE0 ADD PUSH1 0x40 MSTORE SWAP1 DUP2 PUSH1 0x0 DUP3 ADD PUSH1 0x0 SWAP1 SLOAD SWAP1 PUSH2 0x100 EXP SWAP1 DIV PUSH20 0xFFFFFFFFFFFFFFFFFFFFFFFFFFFFFFFFFFFFFFFF AND PUSH20 0xFFFFFFFFFFFFFFFFFFFFFFFFFFFFFFFFFFFFFFFF AND PUSH20 0xFFFFFFFFFFFFFFFFFFFFFFFFFFFFFFFFFFFFFFFF AND DUP2 MSTORE PUSH1 0x20 ADD PUSH1 0x1 DUP3 ADD DUP1 SLOAD PUSH2 0x476 SWAP1 PUSH2 0xFC0 JUMP JUMPDEST DUP1 PUSH1 0x1F ADD PUSH1 0x20 DUP1 SWAP2 DIV MUL PUSH1 0x20 ADD PUSH1 0x40 MLOAD SWAP1 DUP2 ADD PUSH1 0x40 MSTORE DUP1 SWAP3 SWAP2 SWAP1 DUP2 DUP2 MSTORE PUSH1 0x20 ADD DUP3 DUP1 SLOAD PUSH2 0x4A2 SWAP1 PUSH2 0xFC0 JUMP JUMPDEST DUP1 ISZERO PUSH2 0x4EF JUMPI DUP1 PUSH1 0x1F LT PUSH2 0x4C4 JUMPI PUSH2 0x100 DUP1 DUP4 SLOAD DIV MUL DUP4 MSTORE SWAP2 PUSH1 0x20 ADD SWAP2 PUSH2 0x4EF JUMP JUMPDEST DUP3 ADD SWAP2 SWAP1 PUSH1 0x0 MSTORE PUSH1 0x20 PUSH1 0x0 KECCAK256 SWAP1 JUMPDEST DUP2 SLOAD DUP2 MSTORE SWAP1 PUSH1 0x1 ADD SWAP1 PUSH1 0x20 ADD DUP1 DUP4 GT PUSH2 0x4D2 JUMPI DUP3 SWAP1 SUB PUSH1 0x1F AND DUP3 ADD SWAP2 JUMPDEST POP POP POP POP POP DUP2 MSTORE PUSH1 0x20 ADD PUSH1 0x2 DUP3 ADD DUP1 SLOAD PUSH2 0x508 SWAP1 PUSH2 0xFC0 JUMP JUMPDEST DUP1 PUSH1 0x1F ADD PUSH1 0x20 DUP1 SWAP2 DIV MUL PUSH1 0x20 ADD PUSH1 0x40 MLOAD SWAP1 DUP2 ADD PUSH1 0x40 MSTORE DUP1 SWAP3 SWAP2 SWAP1 DUP2 DUP2 MSTORE PUSH1 0x20 ADD DUP3 DUP1 SLOAD PUSH2 0x534 SWAP1 PUSH2 0xFC0 JUMP JUMPDEST DUP1 ISZERO PUSH2 0x581 JUMPI DUP1 PUSH1 0x1F LT PUSH2 0x556 JUMPI PUSH2 0x100 DUP1 DUP4 SLOAD DIV MUL DUP4 MSTORE SWAP2 PUSH1 0x20 ADD SWAP2 PUSH2 0x581 JUMP JUMPDEST DUP3 ADD SWAP2 SWAP1 PUSH1 0x0 MSTORE PUSH1 0x20 PUSH1 0x0 KECCAK256 SWAP1 JUMPDEST DUP2 SLOAD DUP2 MSTORE SWAP1 PUSH1 0x1 ADD SWAP1 PUSH1 0x20 ADD DUP1 DUP4 GT PUSH2 0x564 JUMPI DUP3 SWAP1 SUB PUSH1 0x1F AND DUP3 ADD SWAP2 JUMPDEST POP POP POP POP POP DUP2 MSTORE PUSH1 0x20 ADD PUSH1 0x3 DUP3 ADD DUP1 SLOAD PUSH2 0x59A SWAP1 PUSH2 0xFC0 JUMP JUMPDEST DUP1 PUSH1 0x1F ADD PUSH1 0x20 DUP1 SWAP2 DIV MUL PUSH1 0x20 ADD PUSH1 0x40 MLOAD SWAP1 DUP2 ADD PUSH1 0x40 MSTORE DUP1 SWAP3 SWAP2 SWAP1 DUP2 DUP2 MSTORE PUSH1 0x20 ADD DUP3 DUP1 SLOAD PUSH2 0x5C6 SWAP1 PUSH2 0xFC0 JUMP JUMPDEST DUP1 ISZERO PUSH2 0x613 JUMPI DUP1 PUSH1 0x1F LT PUSH2 0x5E8 JUMPI PUSH2 0x100 DUP1 DUP4 SLOAD DIV MUL DUP4 MSTORE SWAP2 PUSH1 0x20 ADD SWAP2 PUSH2 0x613 JUMP JUMPDEST DUP3 ADD SWAP2 SWAP1 PUSH1 0x0 MSTORE PUSH1 0x20 PUSH1 0x0 KECCAK256 SWAP1 JUMPDEST DUP2 SLOAD DUP2 MSTORE SWAP1 PUSH1 0x1 ADD SWAP1 PUSH1 0x20 ADD DUP1 DUP4 GT PUSH2 0x5F6 JUMPI DUP3 SWAP1 SUB PUSH1 0x1F AND DUP3 ADD SWAP2 JUMPDEST POP POP POP POP POP DUP2 MSTORE PUSH1 0x20 ADD PUSH1 0x4 DUP3 ADD DUP1 SLOAD PUSH2 0x62C SWAP1 PUSH2 0xFC0 JUMP JUMPDEST DUP1 PUSH1 0x1F ADD PUSH1 0x20 DUP1 SWAP2 DIV MUL PUSH1 0x20 ADD PUSH1 0x40 MLOAD SWAP1 DUP2 ADD PUSH1 0x40 MSTORE DUP1 SWAP3 SWAP2 SWAP1 DUP2 DUP2 MSTORE PUSH1 0x20 ADD DUP3 DUP1 SLOAD PUSH2 0x658 SWAP1 PUSH2 0xFC0 JUMP JUMPDEST DUP1 ISZERO PUSH2 0x6A5 JUMPI DUP1 PUSH1 0x1F LT PUSH2 0x67A JUMPI PUSH2 0x100 DUP1 DUP4 SLOAD DIV MUL DUP4 MSTORE SWAP2 PUSH1 0x20 ADD SWAP2 PUSH2 0x6A5 JUMP JUMPDEST DUP3 ADD SWAP2 SWAP1 PUSH1 0x0 MSTORE PUSH1 0x20 PUSH1 0x0 KECCAK256 SWAP1 JUMPDEST DUP2 SLOAD DUP2 MSTORE SWAP1 PUSH1 0x1 ADD SWAP1 PUSH1 0x20 ADD DUP1 DUP4 GT PUSH2 0x688 JUMPI DUP3 SWAP1 SUB PUSH1 0x1F AND DUP3 ADD SWAP2 JUMPDEST POP POP POP POP POP DUP2 MSTORE PUSH1 0x20 ADD PUSH1 0x5 DUP3 ADD SLOAD DUP2 MSTORE PUSH1 0x20 ADD PUSH1 0x6 DUP3 ADD PUSH1 0x0 SWAP1 SLOAD SWAP1 PUSH2 0x100 EXP SWAP1 DIV PUSH1 0xFF AND ISZERO ISZERO ISZERO ISZERO DUP2 MSTORE POP POP SWAP1 POP CALLER PUSH20 0xFFFFFFFFFFFFFFFFFFFFFFFFFFFFFFFFFFFFFFFF AND DUP2 PUSH1 0x0 ADD MLOAD PUSH20 0xFFFFFFFFFFFFFFFFFFFFFFFFFFFFFFFFFFFFFFFF AND EQ PUSH2 0x747 JUMPI PUSH1 0x40 MLOAD PUSH32 0x8C379A000000000000000000000000000000000000000000000000000000000 DUP2 MSTORE PUSH1 0x4 ADD PUSH2 0x73E SWAP1 PUSH2 0x103D JUMP JUMPDEST PUSH1 0x40 MLOAD DUP1 SWAP2 SUB SWAP1 REVERT JUMPDEST PUSH1 0x1 ISZERO ISZERO DUP2 PUSH1 0xC0 ADD MLOAD ISZERO ISZERO EQ PUSH2 0x792 JUMPI PUSH1 0x40 MLOAD PUSH32 0x8C379A000000000000000000000000000000000000000000000000000000000 DUP2 MSTORE PUSH1 0x4 ADD PUSH2 0x789 SWAP1 PUSH2 0x10A9 JUMP JUMPDEST PUSH1 0x40 MLOAD DUP1 SWAP2 SUB SWAP1 REVERT JUMPDEST PUSH1 0x0 SLOAD DUP2 PUSH1 0xA0 ADD MLOAD GT PUSH2 0x7DA JUMPI PUSH1 0x40 MLOAD PUSH32 0x8C379A000000000000000000000000000000000000000000000000000000000 DUP2 MSTORE PUSH1 0x4 ADD PUSH2 0x7D1 SWAP1 PUSH2 0x113B JUMP JUMPDEST PUSH1 0x40 MLOAD DUP1 SWAP2 SUB SWAP1 REVERT JUMPDEST PUSH1 0x0 DUP2 PUSH1 0x0 ADD MLOAD SWAP1 POP DUP1 PUSH20 0xFFFFFFFFFFFFFFFFFFFFFFFFFFFFFFFFFFFFFFFF AND PUSH1 0x0 SLOAD DUP4 PUSH1 0xA0 ADD MLOAD PUSH2 0x80C SWAP2 SWAP1 PUSH2 0x118A JUMP JUMPDEST PUSH1 0x40 MLOAD PUSH2 0x818 SWAP1 PUSH2 0x11EF JUMP JUMPDEST PUSH1 0x0 PUSH1 0x40 MLOAD DUP1 DUP4 SUB DUP2 DUP6 DUP8 GAS CALL SWAP3 POP POP POP RETURNDATASIZE DUP1 PUSH1 0x0 DUP2 EQ PUSH2 0x855 JUMPI PUSH1 0x40 MLOAD SWAP2 POP PUSH1 0x1F NOT PUSH1 0x3F RETURNDATASIZE ADD AND DUP3 ADD PUSH1 0x40 MSTORE RETURNDATASIZE DUP3 MSTORE RETURNDATASIZE PUSH1 0x0 PUSH1 0x20 DUP5 ADD RETURNDATACOPY PUSH2 0x85A JUMP JUMPDEST PUSH1 0x60 SWAP2 POP JUMPDEST POP POP POP PUSH1 0x0 ISZERO ISZERO DUP3 PUSH1 0xC0 ADD MLOAD POP POP POP POP POP JUMP JUMPDEST PUSH1 0x1 SLOAD DUP2 JUMP JUMPDEST PUSH1 0x0 SLOAD DUP2 JUMP JUMPDEST PUSH2 0x881 PUSH2 0xBE0 JUMP JUMPDEST DUP9 DUP9 DUP1 DUP1 PUSH1 0x1F ADD PUSH1 0x20 DUP1 SWAP2 DIV MUL PUSH1 0x20 ADD PUSH1 0x40 MLOAD SWAP1 DUP2 ADD PUSH1 0x40 MSTORE DUP1 SWAP4 SWAP3 SWAP2 SWAP1 DUP2 DUP2 MSTORE PUSH1 0x20 ADD DUP4 DUP4 DUP1 DUP3 DUP5 CALLDATACOPY PUSH1 0x0 DUP2 DUP5 ADD MSTORE PUSH1 0x1F NOT PUSH1 0x1F DUP3 ADD AND SWAP1 POP DUP1 DUP4 ADD SWAP3 POP POP POP POP POP POP POP DUP2 PUSH1 0x20 ADD DUP2 SWAP1 MSTORE POP DUP7 DUP7 DUP1 DUP1 PUSH1 0x1F ADD PUSH1 0x20 DUP1 SWAP2 DIV MUL PUSH1 0x20 ADD PUSH1 0x40 MLOAD SWAP1 DUP2 ADD PUSH1 0x40 MSTORE DUP1 SWAP4 SWAP3 SWAP2 SWAP1 DUP2 DUP2 MSTORE PUSH1 0x20 ADD DUP4 DUP4 DUP1 DUP3 DUP5 CALLDATACOPY PUSH1 0x0 DUP2 DUP5 ADD MSTORE PUSH1 0x1F NOT PUSH1 0x1F DUP3 ADD AND SWAP1 POP DUP1 DUP4 ADD SWAP3 POP POP POP POP POP POP POP DUP2 PUSH1 0x40 ADD DUP2 SWAP1 MSTORE POP DUP5 DUP5 DUP1 DUP1 PUSH1 0x1F ADD PUSH1 0x20 DUP1 SWAP2 DIV MUL PUSH1 0x20 ADD PUSH1 0x40 MLOAD SWAP1 DUP2 ADD PUSH1 0x40 MSTORE DUP1 SWAP4 SWAP3 SWAP2 SWAP1 DUP2 DUP2 MSTORE PUSH1 0x20 ADD DUP4 DUP4 DUP1 DUP3 DUP5 CALLDATACOPY PUSH1 0x0 DUP2 DUP5 ADD MSTORE PUSH1 0x1F NOT PUSH1 0x1F DUP3 ADD AND SWAP1 POP DUP1 DUP4 ADD SWAP3 POP POP POP POP POP POP POP DUP2 PUSH1 0x60 ADD DUP2 SWAP1 MSTORE POP DUP3 DUP3 DUP1 DUP1 PUSH1 0x1F ADD PUSH1 0x20 DUP1 SWAP2 DIV MUL PUSH1 0x20 ADD PUSH1 0x40 MLOAD SWAP1 DUP2 ADD PUSH1 0x40 MSTORE DUP1 SWAP4 SWAP3 SWAP2 SWAP1 DUP2 DUP2 MSTORE PUSH1 0x20 ADD DUP4 DUP4 DUP1 DUP3 DUP5 CALLDATACOPY PUSH1 0x0 DUP2 DUP5 ADD MSTORE PUSH1 0x1F NOT PUSH1 0x1F DUP3 ADD AND SWAP1 POP DUP1 DUP4 ADD SWAP3 POP POP POP POP POP POP POP DUP2 PUSH1 0x80 ADD DUP2 SWAP1 MSTORE POP PUSH1 0x1 DUP2 PUSH1 0xC0 ADD SWAP1 ISZERO ISZERO SWAP1 DUP2 ISZERO ISZERO DUP2 MSTORE POP POP CALLER DUP2 PUSH1 0x0 ADD SWAP1 PUSH20 0xFFFFFFFFFFFFFFFFFFFFFFFFFFFFFFFFFFFFFFFF AND SWAP1 DUP2 PUSH20 0xFFFFFFFFFFFFFFFFFFFFFFFFFFFFFFFFFFFFFFFF AND DUP2 MSTORE POP POP PUSH1 0x1 PUSH1 0x0 DUP2 SLOAD DUP1 SWAP3 SWAP2 SWAP1 PUSH2 0xA11 SWAP1 PUSH2 0x1204 JUMP JUMPDEST SWAP2 SWAP1 POP SSTORE POP DUP1 PUSH1 0x2 PUSH1 0x0 PUSH1 0x1 SLOAD DUP2 MSTORE PUSH1 0x20 ADD SWAP1 DUP2 MSTORE PUSH1 0x20 ADD PUSH1 0x0 KECCAK256 PUSH1 0x0 DUP3 ADD MLOAD DUP2 PUSH1 0x0 ADD PUSH1 0x0 PUSH2 0x100 EXP DUP2 SLOAD DUP2 PUSH20 0xFFFFFFFFFFFFFFFFFFFFFFFFFFFFFFFFFFFFFFFF MUL NOT AND SWAP1 DUP4 PUSH20 0xFFFFFFFFFFFFFFFFFFFFFFFFFFFFFFFFFFFFFFFF AND MUL OR SWAP1 SSTORE POP PUSH1 0x20 DUP3 ADD MLOAD DUP2 PUSH1 0x1 ADD SWAP1 DUP2 PUSH2 0xA88 SWAP2 SWAP1 PUSH2 0x1427 JUMP JUMPDEST POP PUSH1 0x40 DUP3 ADD MLOAD DUP2 PUSH1 0x2 ADD SWAP1 DUP2 PUSH2 0xA9E SWAP2 SWAP1 PUSH2 0x1427 JUMP JUMPDEST POP PUSH1 0x60 DUP3 ADD MLOAD DUP2 PUSH1 0x3 ADD SWAP1 DUP2 PUSH2 0xAB4 SWAP2 SWAP1 PUSH2 0x1427 JUMP JUMPDEST POP PUSH1 0x80 DUP3 ADD MLOAD DUP2 PUSH1 0x4 ADD SWAP1 DUP2 PUSH2 0xACA SWAP2 SWAP1 PUSH2 0x1427 JUMP JUMPDEST POP PUSH1 0xA0 DUP3 ADD MLOAD DUP2 PUSH1 0x5 ADD SSTORE PUSH1 0xC0 DUP3 ADD MLOAD DUP2 PUSH1 0x6 ADD PUSH1 0x0 PUSH2 0x100 EXP DUP2 SLOAD DUP2 PUSH1 0xFF MUL NOT AND SWAP1 DUP4 ISZERO ISZERO MUL OR SWAP1 SSTORE POP SWAP1 POP POP POP POP POP POP POP POP POP POP POP JUMP JUMPDEST PUSH1 0x0 CALLVALUE GT PUSH2 0xB46 JUMPI PUSH1 0x40 MLOAD PUSH32 0x8C379A000000000000000000000000000000000000000000000000000000000 DUP2 MSTORE PUSH1 0x4 ADD PUSH2 0xB3D SWAP1 PUSH2 0x156B JUMP JUMPDEST PUSH1 0x40 MLOAD DUP1 SWAP2 SUB SWAP1 REVERT JUMPDEST PUSH1 0x1 ISZERO ISZERO PUSH1 0x2 PUSH1 0x0 DUP4 DUP2 MSTORE PUSH1 0x20 ADD SWAP1 DUP2 MSTORE PUSH1 0x20 ADD PUSH1 0x0 KECCAK256 PUSH1 0x6 ADD PUSH1 0x0 SWAP1 SLOAD SWAP1 PUSH2 0x100 EXP SWAP1 DIV PUSH1 0xFF AND ISZERO ISZERO EQ PUSH2 0xBB0 JUMPI PUSH1 0x40 MLOAD PUSH32 0x8C379A000000000000000000000000000000000000000000000000000000000 DUP2 MSTORE PUSH1 0x4 ADD PUSH2 0xBA7 SWAP1 PUSH2 0x15D7 JUMP JUMPDEST PUSH1 0x40 MLOAD DUP1 SWAP2 SUB SWAP1 REVERT JUMPDEST CALLVALUE PUSH1 0x2 PUSH1 0x0 DUP4 DUP2 MSTORE PUSH1 0x20 ADD SWAP1 DUP2 MSTORE PUSH1 0x20 ADD PUSH1 0x0 KECCAK256 PUSH1 0x5 ADD PUSH1 0x0 DUP3 DUP3 SLOAD PUSH2 0xBD6 SWAP2 SWAP1 PUSH2 0x15F7 JUMP JUMPDEST SWAP3 POP POP DUP2 SWAP1 SSTORE POP POP JUMP JUMPDEST PUSH1 0x40 MLOAD DUP1 PUSH1 0xE0 ADD PUSH1 0x40 MSTORE DUP1 PUSH1 0x0 PUSH20 0xFFFFFFFFFFFFFFFFFFFFFFFFFFFFFFFFFFFFFFFF AND DUP2 MSTORE PUSH1 0x20 ADD PUSH1 0x60 DUP2 MSTORE PUSH1 0x20 ADD PUSH1 0x60 DUP2 MSTORE PUSH1 0x20 ADD PUSH1 0x60 DUP2 MSTORE PUSH1 0x20 ADD PUSH1 0x60 DUP2 MSTORE PUSH1 0x20 ADD PUSH1 0x0 DUP2 MSTORE PUSH1 0x20 ADD PUSH1 0x0 ISZERO ISZERO DUP2 MSTORE POP SWAP1 JUMP JUMPDEST PUSH1 0x0 DUP1 REVERT JUMPDEST PUSH1 0x0 DUP1 REVERT JUMPDEST PUSH1 0x0 DUP2 SWAP1 POP SWAP2 SWAP1 POP JUMP JUMPDEST PUSH2 0xC52 DUP2 PUSH2 0xC3F JUMP JUMPDEST DUP2 EQ PUSH2 0xC5D JUMPI PUSH1 0x0 DUP1 REVERT JUMPDEST POP JUMP JUMPDEST PUSH1 0x0 DUP2 CALLDATALOAD SWAP1 POP PUSH2 0xC6F DUP2 PUSH2 0xC49 JUMP JUMPDEST SWAP3 SWAP2 POP POP JUMP JUMPDEST PUSH1 0x0 PUSH1 0x20 DUP3 DUP5 SUB SLT ISZERO PUSH2 0xC8B JUMPI PUSH2 0xC8A PUSH2 0xC35 JUMP JUMPDEST JUMPDEST PUSH1 0x0 PUSH2 0xC99 DUP5 DUP3 DUP6 ADD PUSH2 0xC60 JUMP JUMPDEST SWAP2 POP POP SWAP3 SWAP2 POP POP JUMP JUMPDEST PUSH1 0x0 PUSH20 0xFFFFFFFFFFFFFFFFFFFFFFFFFFFFFFFFFFFFFFFF DUP3 AND SWAP1 POP SWAP2 SWAP1 POP JUMP JUMPDEST PUSH1 0x0 PUSH2 0xCCD DUP3 PUSH2 0xCA2 JUMP JUMPDEST SWAP1 POP SWAP2 SWAP1 POP JUMP JUMPDEST PUSH2 0xCDD DUP2 PUSH2 0xCC2 JUMP JUMPDEST DUP3 MSTORE POP POP JUMP JUMPDEST PUSH1 0x0 DUP2 MLOAD SWAP1 POP SWAP2 SWAP1 POP JUMP JUMPDEST PUSH1 0x0 DUP3 DUP3 MSTORE PUSH1 0x20 DUP3 ADD SWAP1 POP SWAP3 SWAP2 POP POP JUMP JUMPDEST PUSH1 0x0 JUMPDEST DUP4 DUP2 LT ISZERO PUSH2 0xD1D JUMPI DUP1 DUP3 ADD MLOAD DUP2 DUP5 ADD MSTORE PUSH1 0x20 DUP2 ADD SWAP1 POP PUSH2 0xD02 JUMP JUMPDEST PUSH1 0x0 DUP5 DUP5 ADD MSTORE POP POP POP POP JUMP JUMPDEST PUSH1 0x0 PUSH1 0x1F NOT PUSH1 0x1F DUP4 ADD AND SWAP1 POP SWAP2 SWAP1 POP JUMP JUMPDEST PUSH1 0x0 PUSH2 0xD45 DUP3 PUSH2 0xCE3 JUMP JUMPDEST PUSH2 0xD4F DUP2 DUP6 PUSH2 0xCEE JUMP JUMPDEST SWAP4 POP PUSH2 0xD5F DUP2 DUP6 PUSH1 0x20 DUP7 ADD PUSH2 0xCFF JUMP JUMPDEST PUSH2 0xD68 DUP2 PUSH2 0xD29 JUMP JUMPDEST DUP5 ADD SWAP2 POP POP SWAP3 SWAP2 POP POP JUMP JUMPDEST PUSH2 0xD7C DUP2 PUSH2 0xC3F JUMP JUMPDEST DUP3 MSTORE POP POP JUMP JUMPDEST PUSH1 0x0 DUP2 ISZERO ISZERO SWAP1 POP SWAP2 SWAP1 POP JUMP JUMPDEST PUSH2 0xD97 DUP2 PUSH2 0xD82 JUMP JUMPDEST DUP3 MSTORE POP POP JUMP JUMPDEST PUSH1 0x0 PUSH1 0xE0 DUP3 ADD SWAP1 POP PUSH2 0xDB2 PUSH1 0x0 DUP4 ADD DUP11 PUSH2 0xCD4 JUMP JUMPDEST DUP2 DUP2 SUB PUSH1 0x20 DUP4 ADD MSTORE PUSH2 0xDC4 DUP2 DUP10 PUSH2 0xD3A JUMP JUMPDEST SWAP1 POP DUP2 DUP2 SUB PUSH1 0x40 DUP4 ADD MSTORE PUSH2 0xDD8 DUP2 DUP9 PUSH2 0xD3A JUMP JUMPDEST SWAP1 POP DUP2 DUP2 SUB PUSH1 0x60 DUP4 ADD MSTORE PUSH2 0xDEC DUP2 DUP8 PUSH2 0xD3A JUMP JUMPDEST SWAP1 POP DUP2 DUP2 SUB PUSH1 0x80 DUP4 ADD MSTORE PUSH2 0xE00 DUP2 DUP7 PUSH2 0xD3A JUMP JUMPDEST SWAP1 POP PUSH2 0xE0F PUSH1 0xA0 DUP4 ADD DUP6 PUSH2 0xD73 JUMP JUMPDEST PUSH2 0xE1C PUSH1 0xC0 DUP4 ADD DUP5 PUSH2 0xD8E JUMP JUMPDEST SWAP9 SWAP8 POP POP POP POP POP POP POP POP JUMP JUMPDEST PUSH1 0x0 PUSH1 0x20 DUP3 ADD SWAP1 POP PUSH2 0xE3D PUSH1 0x0 DUP4 ADD DUP5 PUSH2 0xD73 JUMP JUMPDEST SWAP3 SWAP2 POP POP JUMP JUMPDEST PUSH1 0x0 DUP1 REVERT JUMPDEST PUSH1 0x0 DUP1 REVERT JUMPDEST PUSH1 0x0 DUP1 REVERT JUMPDEST PUSH1 0x0 DUP1 DUP4 PUSH1 0x1F DUP5 ADD SLT PUSH2 0xE68 JUMPI PUSH2 0xE67 PUSH2 0xE43 JUMP JUMPDEST JUMPDEST DUP3 CALLDATALOAD SWAP1 POP PUSH8 0xFFFFFFFFFFFFFFFF DUP2 GT ISZERO PUSH2 0xE85 JUMPI PUSH2 0xE84 PUSH2 0xE48 JUMP JUMPDEST JUMPDEST PUSH1 0x20 DUP4 ADD SWAP2 POP DUP4 PUSH1 0x1 DUP3 MUL DUP4 ADD GT ISZERO PUSH2 0xEA1 JUMPI PUSH2 0xEA0 PUSH2 0xE4D JUMP JUMPDEST JUMPDEST SWAP3 POP SWAP3 SWAP1 POP JUMP JUMPDEST PUSH1 0x0 DUP1 PUSH1 0x0 DUP1 PUSH1 0x0 DUP1 PUSH1 0x0 DUP1 PUSH1 0x80 DUP10 DUP12 SUB SLT ISZERO PUSH2 0xEC8 JUMPI PUSH2 0xEC7 PUSH2 0xC35 JUMP JUMPDEST JUMPDEST PUSH1 0x0 DUP10 ADD CALLDATALOAD PUSH8 0xFFFFFFFFFFFFFFFF DUP2 GT ISZERO PUSH2 0xEE6 JUMPI PUSH2 0xEE5 PUSH2 0xC3A JUMP JUMPDEST JUMPDEST PUSH2 0xEF2 DUP12 DUP3 DUP13 ADD PUSH2 0xE52 JUMP JUMPDEST SWAP9 POP SWAP9 POP POP PUSH1 0x20 DUP10 ADD CALLDATALOAD PUSH8 0xFFFFFFFFFFFFFFFF DUP2 GT ISZERO PUSH2 0xF15 JUMPI PUSH2 0xF14 PUSH2 0xC3A JUMP JUMPDEST JUMPDEST PUSH2 0xF21 DUP12 DUP3 DUP13 ADD PUSH2 0xE52 JUMP JUMPDEST SWAP7 POP SWAP7 POP POP PUSH1 0x40 DUP10 ADD CALLDATALOAD PUSH8 0xFFFFFFFFFFFFFFFF DUP2 GT ISZERO PUSH2 0xF44 JUMPI PUSH2 0xF43 PUSH2 0xC3A JUMP JUMPDEST JUMPDEST PUSH2 0xF50 DUP12 DUP3 DUP13 ADD PUSH2 0xE52 JUMP JUMPDEST SWAP5 POP SWAP5 POP POP PUSH1 0x60 DUP10 ADD CALLDATALOAD PUSH8 0xFFFFFFFFFFFFFFFF DUP2 GT ISZERO PUSH2 0xF73 JUMPI PUSH2 0xF72 PUSH2 0xC3A JUMP JUMPDEST JUMPDEST PUSH2 0xF7F DUP12 DUP3 DUP13 ADD PUSH2 0xE52 JUMP JUMPDEST SWAP3 POP SWAP3 POP POP SWAP3 SWAP6 SWAP9 POP SWAP3 SWAP6 SWAP9 SWAP1 SWAP4 SWAP7 POP JUMP JUMPDEST PUSH32 0x4E487B7100000000000000000000000000000000000000000000000000000000 PUSH1 0x0 MSTORE PUSH1 0x22 PUSH1 0x4 MSTORE PUSH1 0x24 PUSH1 0x0 REVERT JUMPDEST PUSH1 0x0 PUSH1 0x2 DUP3 DIV SWAP1 POP PUSH1 0x1 DUP3 AND DUP1 PUSH2 0xFD8 JUMPI PUSH1 0x7F DUP3 AND SWAP2 POP JUMPDEST PUSH1 0x20 DUP3 LT DUP2 SUB PUSH2 0xFEB JUMPI PUSH2 0xFEA PUSH2 0xF91 JUMP JUMPDEST JUMPDEST POP SWAP2 SWAP1 POP JUMP JUMPDEST PUSH32 0x596F7520646F206E6F742068617665207065726D697373696F6E000000000000 PUSH1 0x0 DUP3 ADD MSTORE POP JUMP JUMPDEST PUSH1 0x0 PUSH2 0x1027 PUSH1 0x1A DUP4 PUSH2 0xCEE JUMP JUMPDEST SWAP2 POP PUSH2 0x1032 DUP3 PUSH2 0xFF1 JUMP JUMPDEST PUSH1 0x20 DUP3 ADD SWAP1 POP SWAP2 SWAP1 POP JUMP JUMPDEST PUSH1 0x0 PUSH1 0x20 DUP3 ADD SWAP1 POP DUP2 DUP2 SUB PUSH1 0x0 DUP4 ADD MSTORE PUSH2 0x1056 DUP2 PUSH2 0x101A JUMP JUMPDEST SWAP1 POP SWAP2 SWAP1 POP JUMP JUMPDEST PUSH32 0x546869732063616D706169676E20697320636C6F736564000000000000000000 PUSH1 0x0 DUP3 ADD MSTORE POP JUMP JUMPDEST PUSH1 0x0 PUSH2 0x1093 PUSH1 0x17 DUP4 PUSH2 0xCEE JUMP JUMPDEST SWAP2 POP PUSH2 0x109E DUP3 PUSH2 0x105D JUMP JUMPDEST PUSH1 0x20 DUP3 ADD SWAP1 POP SWAP2 SWAP1 POP JUMP JUMPDEST PUSH1 0x0 PUSH1 0x20 DUP3 ADD SWAP1 POP DUP2 DUP2 SUB PUSH1 0x0 DUP4 ADD MSTORE PUSH2 0x10C2 DUP2 PUSH2 0x1086 JUMP JUMPDEST SWAP1 POP SWAP2 SWAP1 POP JUMP JUMPDEST PUSH32 0x546869732063616D706169676E20646F6573206E6F74206861766520656E6F75 PUSH1 0x0 DUP3 ADD MSTORE PUSH32 0x6768742062616C616E6365000000000000000000000000000000000000000000 PUSH1 0x20 DUP3 ADD MSTORE POP JUMP JUMPDEST PUSH1 0x0 PUSH2 0x1125 PUSH1 0x2B DUP4 PUSH2 0xCEE JUMP JUMPDEST SWAP2 POP PUSH2 0x1130 DUP3 PUSH2 0x10C9 JUMP JUMPDEST PUSH1 0x40 DUP3 ADD SWAP1 POP SWAP2 SWAP1 POP JUMP JUMPDEST PUSH1 0x0 PUSH1 0x20 DUP3 ADD SWAP1 POP DUP2 DUP2 SUB PUSH1 0x0 DUP4 ADD MSTORE PUSH2 0x1154 DUP2 PUSH2 0x1118 JUMP JUMPDEST SWAP1 POP SWAP2 SWAP1 POP JUMP JUMPDEST PUSH32 0x4E487B7100000000000000000000000000000000000000000000000000000000 PUSH1 0x0 MSTORE PUSH1 0x11 PUSH1 0x4 MSTORE PUSH1 0x24 PUSH1 0x0 REVERT JUMPDEST PUSH1 0x0 PUSH2 0x1195 DUP3 PUSH2 0xC3F JUMP JUMPDEST SWAP2 POP PUSH2 0x11A0 DUP4 PUSH2 0xC3F JUMP JUMPDEST SWAP3 POP DUP3 DUP3 SUB SWAP1 POP DUP2 DUP2 GT ISZERO PUSH2 0x11B8 JUMPI PUSH2 0x11B7 PUSH2 0x115B JUMP JUMPDEST JUMPDEST SWAP3 SWAP2 POP POP JUMP JUMPDEST PUSH1 0x0 DUP2 SWAP1 POP SWAP3 SWAP2 POP POP JUMP JUMPDEST POP JUMP JUMPDEST PUSH1 0x0 PUSH2 0x11D9 PUSH1 0x0 DUP4 PUSH2 0x11BE JUMP JUMPDEST SWAP2 POP PUSH2 0x11E4 DUP3 PUSH2 0x11C9 JUMP JUMPDEST PUSH1 0x0 DUP3 ADD SWAP1 POP SWAP2 SWAP1 POP JUMP JUMPDEST PUSH1 0x0 PUSH2 0x11FA DUP3 PUSH2 0x11CC JUMP JUMPDEST SWAP2 POP DUP2 SWAP1 POP SWAP2 SWAP1 POP JUMP JUMPDEST PUSH1 0x0 PUSH2 0x120F DUP3 PUSH2 0xC3F JUMP JUMPDEST SWAP2 POP PUSH32 0xFFFFFFFFFFFFFFFFFFFFFFFFFFFFFFFFFFFFFFFFFFFFFFFFFFFFFFFFFFFFFFFF DUP3 SUB PUSH2 0x1241 JUMPI PUSH2 0x1240 PUSH2 0x115B JUMP JUMPDEST JUMPDEST PUSH1 0x1 DUP3 ADD SWAP1 POP SWAP2 SWAP1 POP JUMP JUMPDEST PUSH32 0x4E487B7100000000000000000000000000000000000000000000000000000000 PUSH1 0x0 MSTORE PUSH1 0x41 PUSH1 0x4 MSTORE PUSH1 0x24 PUSH1 0x0 REVERT JUMPDEST PUSH1 0x0 DUP2 SWAP1 POP DUP2 PUSH1 0x0 MSTORE PUSH1 0x20 PUSH1 0x0 KECCAK256 SWAP1 POP SWAP2 SWAP1 POP JUMP JUMPDEST PUSH1 0x0 PUSH1 0x20 PUSH1 0x1F DUP4 ADD DIV SWAP1 POP SWAP2 SWAP1 POP JUMP JUMPDEST PUSH1 0x0 DUP3 DUP3 SHL SWAP1 POP SWAP3 SWAP2 POP POP JUMP JUMPDEST PUSH1 0x0 PUSH1 0x8 DUP4 MUL PUSH2 0x12DD PUSH32 0xFFFFFFFFFFFFFFFFFFFFFFFFFFFFFFFFFFFFFFFFFFFFFFFFFFFFFFFFFFFFFFFF DUP3 PUSH2 0x12A0 JUMP JUMPDEST PUSH2 0x12E7 DUP7 DUP4 PUSH2 0x12A0 JUMP JUMPDEST SWAP6 POP DUP1 NOT DUP5 AND SWAP4 POP DUP1 DUP7 AND DUP5 OR SWAP3 POP POP POP SWAP4 SWAP3 POP POP POP JUMP JUMPDEST PUSH1 0x0 DUP2 SWAP1 POP SWAP2 SWAP1 POP JUMP JUMPDEST PUSH1 0x0 PUSH2 0x1324 PUSH2 0x131F PUSH2 0x131A DUP5 PUSH2 0xC3F JUMP JUMPDEST PUSH2 0x12FF JUMP JUMPDEST PUSH2 0xC3F JUMP JUMPDEST SWAP1 POP SWAP2 SWAP1 POP JUMP JUMPDEST PUSH1 0x0 DUP2 SWAP1 POP SWAP2 SWAP1 POP JUMP JUMPDEST PUSH2 0x133E DUP4 PUSH2 0x1309 JUMP JUMPDEST PUSH2 0x1352 PUSH2 0x134A DUP3 PUSH2 0x132B JUMP JUMPDEST DUP5 DUP5 SLOAD PUSH2 0x12AD JUMP JUMPDEST DUP3 SSTORE POP POP POP POP JUMP JUMPDEST PUSH1 0x0 SWAP1 JUMP JUMPDEST PUSH2 0x1367 PUSH2 0x135A JUMP JUMPDEST PUSH2 0x1372 DUP2 DUP5 DUP5 PUSH2 0x1335 JUMP JUMPDEST POP POP POP JUMP JUMPDEST JUMPDEST DUP2 DUP2 LT ISZERO PUSH2 0x1396 JUMPI PUSH2 0x138B PUSH1 0x0 DUP3 PUSH2 0x135F JUMP JUMPDEST PUSH1 0x1 DUP2 ADD SWAP1 POP PUSH2 0x1378 JUMP JUMPDEST POP POP JUMP JUMPDEST PUSH1 0x1F DUP3 GT ISZERO PUSH2 0x13DB JUMPI PUSH2 0x13AC DUP2 PUSH2 0x127B JUMP JUMPDEST PUSH2 0x13B5 DUP5 PUSH2 0x1290 JUMP JUMPDEST DUP2 ADD PUSH1 0x20 DUP6 LT ISZERO PUSH2 0x13C4 JUMPI DUP2 SWAP1 POP JUMPDEST PUSH2 0x13D8 PUSH2 0x13D0 DUP6 PUSH2 0x1290 JUMP JUMPDEST DUP4 ADD DUP3 PUSH2 0x1377 JUMP JUMPDEST POP POP JUMPDEST POP POP POP JUMP JUMPDEST PUSH1 0x0 DUP3 DUP3 SHR SWAP1 POP SWAP3 SWAP2 POP POP JUMP JUMPDEST PUSH1 0x0 PUSH2 0x13FE PUSH1 0x0 NOT DUP5 PUSH1 0x8 MUL PUSH2 0x13E0 JUMP JUMPDEST NOT DUP1 DUP4 AND SWAP2 POP POP SWAP3 SWAP2 POP POP JUMP JUMPDEST PUSH1 0x0 PUSH2 0x1417 DUP4 DUP4 PUSH2 0x13ED JUMP JUMPDEST SWAP2 POP DUP3 PUSH1 0x2 MUL DUP3 OR SWAP1 POP SWAP3 SWAP2 POP POP JUMP JUMPDEST PUSH2 0x1430 DUP3 PUSH2 0xCE3 JUMP JUMPDEST PUSH8 0xFFFFFFFFFFFFFFFF DUP2 GT ISZERO PUSH2 0x1449 JUMPI PUSH2 0x1448 PUSH2 0x124C JUMP JUMPDEST JUMPDEST PUSH2 0x1453 DUP3 SLOAD PUSH2 0xFC0 JUMP JUMPDEST PUSH2 0x145E DUP3 DUP3 DUP6 PUSH2 0x139A JUMP JUMPDEST PUSH1 0x0 PUSH1 0x20 SWAP1 POP PUSH1 0x1F DUP4 GT PUSH1 0x1 DUP2 EQ PUSH2 0x1491 JUMPI PUSH1 0x0 DUP5 ISZERO PUSH2 0x147F JUMPI DUP3 DUP8 ADD MLOAD SWAP1 POP JUMPDEST PUSH2 0x1489 DUP6 DUP3 PUSH2 0x140B JUMP JUMPDEST DUP7 SSTORE POP PUSH2 0x14F1 JUMP JUMPDEST PUSH1 0x1F NOT DUP5 AND PUSH2 0x149F DUP7 PUSH2 0x127B JUMP JUMPDEST PUSH1 0x0 JUMPDEST DUP3 DUP2 LT ISZERO PUSH2 0x14C7 JUMPI DUP5 DUP10 ADD MLOAD DUP3 SSTORE PUSH1 0x1 DUP3 ADD SWAP2 POP PUSH1 0x20 DUP6 ADD SWAP5 POP PUSH1 0x20 DUP2 ADD SWAP1 POP PUSH2 0x14A2 JUMP JUMPDEST DUP7 DUP4 LT ISZERO PUSH2 0x14E4 JUMPI DUP5 DUP10 ADD MLOAD PUSH2 0x14E0 PUSH1 0x1F DUP10 AND DUP3 PUSH2 0x13ED JUMP JUMPDEST DUP4 SSTORE POP JUMPDEST PUSH1 0x1 PUSH1 0x2 DUP9 MUL ADD DUP9 SSTORE POP POP POP JUMPDEST POP POP POP POP POP POP JUMP JUMPDEST PUSH32 0x596F75206D7573742073656E64206120646F6E6174696F6E2076616C7565203E PUSH1 0x0 DUP3 ADD MSTORE PUSH32 0x2030000000000000000000000000000000000000000000000000000000000000 PUSH1 0x20 DUP3 ADD MSTORE POP JUMP JUMPDEST PUSH1 0x0 PUSH2 0x1555 PUSH1 0x22 DUP4 PUSH2 0xCEE JUMP JUMPDEST SWAP2 POP PUSH2 0x1560 DUP3 PUSH2 0x14F9 JUMP JUMPDEST PUSH1 0x40 DUP3 ADD SWAP1 POP SWAP2 SWAP1 POP JUMP JUMPDEST PUSH1 0x0 PUSH1 0x20 DUP3 ADD SWAP1 POP DUP2 DUP2 SUB PUSH1 0x0 DUP4 ADD MSTORE PUSH2 0x1584 DUP2 PUSH2 0x1548 JUMP JUMPDEST SWAP1 POP SWAP2 SWAP1 POP JUMP JUMPDEST PUSH32 0x43616E6E6F7420646F6E61746520746F20746869732063616D706169676E0000 PUSH1 0x0 DUP3 ADD MSTORE POP JUMP JUMPDEST PUSH1 0x0 PUSH2 0x15C1 PUSH1 0x1E DUP4 PUSH2 0xCEE JUMP JUMPDEST SWAP2 POP PUSH2 0x15CC DUP3 PUSH2 0x158B JUMP JUMPDEST PUSH1 0x20 DUP3 ADD SWAP1 POP SWAP2 SWAP1 POP JUMP JUMPDEST PUSH1 0x0 PUSH1 0x20 DUP3 ADD SWAP1 POP DUP2 DUP2 SUB PUSH1 0x0 DUP4 ADD MSTORE PUSH2 0x15F0 DUP2 PUSH2 0x15B4 JUMP JUMPDEST SWAP1 POP SWAP2 SWAP1 POP JUMP JUMPDEST PUSH1 0x0 PUSH2 0x1602 DUP3 PUSH2 0xC3F JUMP JUMPDEST SWAP2 POP PUSH2 0x160D DUP4 PUSH2 0xC3F JUMP JUMPDEST SWAP3 POP DUP3 DUP3 ADD SWAP1 POP DUP1 DUP3 GT ISZERO PUSH2 0x1625 JUMPI PUSH2 0x1624 PUSH2 0x115B JUMP JUMPDEST JUMPDEST SWAP3 SWAP2 POP POP JUMP INVALID LOG2 PUSH5 0x6970667358 0x22 SLT KECCAK256 0x5E 0xDA PUSH25 0x5A7851A482CDCD17D122DB52CF5FAD822F4CC0412EFC1BB10F PUSH2 0x55EE GASLIMIT PUSH5 0x736F6C6343 STOP ADDMOD SLT STOP CALLER "
				},
				"gasEstimates": {
					"creation": {
						"codeDepositCost": "1145800",
						"executionCost": "28306",
						"totalCost": "1174106"
					},
					"external": {
						"addCampaign(string,string,string,string)": "infinite",
						"campaigns(uint256)": "infinite",
						"donate(uint256)": "infinite",
						"fee()": "2473",
						"nextId()": "2451",
						"withdraw(uint256)": "infinite"
					}
				},
				"methodIdentifiers": {
					"addCampaign(string,string,string,string)": "ec671486",
					"campaigns(uint256)": "141961bc",
					"donate(uint256)": "f14faf6f",
					"fee()": "ddca3f43",
					"nextId()": "61b8ce8c",
					"withdraw(uint256)": "2e1a7d4d"
				}
			},
			"storageLayout": {
				"storage": [
					{
						"astId": 19,
						"contract": "DonateCrypto.sol:DonateCrypto",
						"label": "fee",
						"offset": 0,
						"slot": "0",
						"type": "t_uint256"
					},
					{
						"astId": 22,
						"contract": "DonateCrypto.sol:DonateCrypto",
						"label": "nextId",
						"offset": 0,
						"slot": "1",
						"type": "t_uint256"
					},
					{
						"astId": 27,
						"contract": "DonateCrypto.sol:DonateCrypto",
						"label": "campaigns",
						"offset": 0,
						"slot": "2",
						"type": "t_mapping(t_uint256,t_struct(Campaign)16_storage)"
					}
				],
				"types": {
					"t_address": {
						"encoding": "inplace",
						"label": "address",
						"numberOfBytes": "20"
					},
					"t_bool": {
						"encoding": "inplace",
						"label": "bool",
						"numberOfBytes": "1"
					},
					"t_mapping(t_uint256,t_struct(Campaign)16_storage)": {
						"encoding": "mapping",
						"key": "t_uint256",
						"label": "mapping(uint256 => struct Campaign)",
						"numberOfBytes": "32",
						"value": "t_struct(Campaign)16_storage"
					},
					"t_string_storage": {
						"encoding": "bytes",
						"label": "string",
						"numberOfBytes": "32"
					},
					"t_struct(Campaign)16_storage": {
						"encoding": "inplace",
						"label": "struct Campaign",
						"members": [
							{
								"astId": 3,
								"contract": "DonateCrypto.sol:DonateCrypto",
								"label": "author",
								"offset": 0,
								"slot": "0",
								"type": "t_address"
							},
							{
								"astId": 5,
								"contract": "DonateCrypto.sol:DonateCrypto",
								"label": "title",
								"offset": 0,
								"slot": "1",
								"type": "t_string_storage"
							},
							{
								"astId": 7,
								"contract": "DonateCrypto.sol:DonateCrypto",
								"label": "description",
								"offset": 0,
								"slot": "2",
								"type": "t_string_storage"
							},
							{
								"astId": 9,
								"contract": "DonateCrypto.sol:DonateCrypto",
								"label": "videoUrl",
								"offset": 0,
								"slot": "3",
								"type": "t_string_storage"
							},
							{
								"astId": 11,
								"contract": "DonateCrypto.sol:DonateCrypto",
								"label": "imageUrl",
								"offset": 0,
								"slot": "4",
								"type": "t_string_storage"
							},
							{
								"astId": 13,
								"contract": "DonateCrypto.sol:DonateCrypto",
								"label": "balance",
								"offset": 0,
								"slot": "5",
								"type": "t_uint256"
							},
							{
								"astId": 15,
								"contract": "DonateCrypto.sol:DonateCrypto",
								"label": "active",
								"offset": 0,
								"slot": "6",
								"type": "t_bool"
							}
						],
						"numberOfBytes": "224"
					},
					"t_uint256": {
						"encoding": "inplace",
						"label": "uint256",
						"numberOfBytes": "32"
					}
				}
			},
			"userdoc": {
				"kind": "user",
				"methods": {},
				"version": 1
			}
		}
	}
}